:020000040800F2
:100000005007002089010008FB1A00087712000839
:10001000F91A00081D0300083D1E0008000000003A
:10002000000000000000000000000000D91B0008D4
:100030001F03000800000000FD1A0008F51B00085F
:10004000A3010008A3010008A3010008A301000800
:10005000A3010008A3010008A3010008A3010008F0
:10006000A3010008A3010008A3010008A3010008E0
:10007000A3010008A3010008A3010008A3010008D0
:10008000A3010008A3010008A3010008A3010008C0
:10009000A3010008A3010008A3010008A3010008B0
:1000A000A3010008A3010008A3010008A3010008A0
:1000B000A3010008A3010008A3010008A301000890
:1000C000A3010008A3010008A3010008A301000880
:1000D000A3010008311E0008A3010008A3010008C5
:1000E000A3010008A3010008A301000800F002F822
:1000F00000F03AF80AA090E8000C82448344AAF188
:100100000107DA4501D100F02FF8AFF2090EBAE885
:100110000F0013F0010F18BFFB1A43F0010318473B
:10012000AC200000CC200000103A24BF78C878C171
:10013000FAD8520724BF30C830C144BF04680C60ED
:10014000704700000023002400250026103A28BF35
:1001500078C1FBD8520728BF30C148BF0B60704739
:100160001FB51FBD10B510BD00F058F81146FFF7C0
:10017000F7FF01F0CDFE00F076F803B4FFF7F2FFD1
:1001800003BC00F07DF8000009488047094800479B
:10019000FEE7FEE7FEE7FEE7FEE7FEE7FEE7FEE737
:1001A000FEE7FEE704480549054A064B7047000094
:1001B000491C0008ED0000085001002050070020F5
:1001C00050030020500300204FF0000200B51346FA
:1001D00094469646203922BFA0E80C50A0E80C5067
:1001E000B1F12001BFF4F7AF090728BFA0E80C5018
:1001F00048BF0CC05DF804EB890028BF40F8042B11
:1002000008BF704748BF20F8022B11F0804F18BF7D
:1002100000F8012B7047704770477047754600F033
:100220002BF8AE4605006946534620F00700854688
:1002300018B020B5FFF7B6FFBDE820404FF000062C
:100240004FF000074FF000084FF0000B21F00701BE
:10025000AC46ACE8C009ACE8C009ACE8C009ACE801
:10026000C0098D46704710B50446AFF300802046A4
:10027000BDE81040FFF781BF00487047F000002044
:1002800001491820ABBEFEE72600020070472DE9A9
:10029000F04107461C4615460E462A2001F0D0FDC7
:1002A000380A01F0E7FDF8B201F0E4FD300A01F090
:1002B000E1FDF0B201F0DEFD2B2001F0C1FD280AC6
:1002C00001F0D8FDE8B201F0D5FD200A01F0D2FD21
:1002D000E0B201F0CFFDBDE8F0412C2001F0B0BD4F
:1002E0002DE9F0410746481E83B290460E46781E1F
:1002F00081B200221046FFF7CAFF00250AE0002461
:1003000004E0404601F0DAFD641CA4B2B442F8D324
:100310006D1CADB2BD42F2D3BDE8F081FEE770477F
:1003200072B6FEE710B590F821100022022905D020
:100330000421816380F82020012010BD01680B6832
:1003400023F00E030B6001680B6823F001030B60C0
:1003500090F84030C46B012101FA03F3636080F828
:10036000211080F82020104610BD000010B590F834
:1003700021100024022903D00421816301243DE0DF
:1003800001680A6822F00E020A6001680A6822F019
:1003900001020A601A4A0168914201D1012121E05B
:1003A000174A1432914201D110211BE0144A28321D
:1003B000914201D1891515E0114A3C32914201D197
:1003C00089140FE00E4A5032914202D14FF480312D
:1003D00008E00B4A6432914202D14FF4801101E0EF
:1003E0004FF08071064A083A5160012180F82110CF
:1003F000002180F82010416B01B18847204610BDD4
:100400000800024070B5044600F004F90546601C7F
:1004100002D004480078044400F0FCF8401BA042DD
:10042000FAD370BD000000202DE9F84FDFF8B89135
:10043000002409F1040A0AF1040B23460F270BF1EB
:10044000040EC9E00125A5402A40AA427DD1674E8D
:10045000D1F804C0ACEB0608B44532D014DCBCF1D2
:10046000030F3AD009DCBCF1000F2AD0BCF1010F18
:100470001CD0BCF1020F31D11DE0BCF1110F17D01F
:10048000BCF1120F2AD119E0B8F5881F19D006DC8B
:10049000B8F5803F15D0B8F5801F1FD111E0B8F531
:1004A000001F0ED0B8F5041F18D10AE0CB6815E084
:1004B000CB681B1D12E0CB6808330FE0CB680C3310
:1004C0000CE08B682BB1012B4FF0080303D0456182
:1004D00004E0042302E0056100E00023FF2A01D8C4
:1004E000064601E000F104064FEA840501D9A5F1B2
:1004F0002005D6F8008007FA05FC28EA0C0803FA64
:1005000005F548EA0508C6F800804D68ED0062D59B
:10051000374DAE6946F00106AE61AD6924F00306C1
:1005200005F001050095334D06EB050CDCF808508D
:10053000A607360F07FA06F825EA0805DFF8B8809F
:10054000404503D14FF0000817E044E0DFF8AC80ED
:10055000404502D14FF001080FE0DFF8A48040458C
:1005600002D14FF0020808E0DFF89880404502D140
:100570004FF0030801E04FF0040808FA06F848EAD3
:100580000508CCF808804D68D9F80060ED034D46A9
:1005900001D5164300E096432E604D68DAF80060FE
:1005A000AD03554601D5164300E096432E604D68D5
:1005B000DBF80060ED025D4601D5164300E096438E
:1005C0002E604D68DEF80060AD02754601D5164319
:1005D00000E096432E60641C0D682A46E5407FF4D7
:1005E00031AFBDE8F88F0000000401400000111099
:1005F000001002400000014000080140000C0140D2
:1006000000100140001401400AB101617047090463
:10061000FBE70000014880687047000000000020F0
:100620000248816802781144816070470000002010
:10063000074810B5016841F010010160032000F087
:1006400075F80F2000F006F800F024F8002010BD27
:100650000020024070B50D4D04464FF47A712878A1
:10066000B1FBF0F00A490968B1FBF0F000F031FC91
:1006700048B9102C07D200222146501E00F036F84F
:1006800000206C6070BD012070BD000000000020E3
:100690000C0000200C4808B5816941F0010181611E
:1006A000816901F001010091C16941F08051C1618E
:1006B000C06900F0805000900448416821F0E0617A
:1006C00041F00071416008BD00100240000001408F
:1006D000002809DB00F01F02012191404009800041
:1006E00000F1E020C0F8001170470000F0B40E4B9C
:1006F0001B680C46C3F30223C3F10705042D00D980
:100700000425191D072901D2002300E0DB1E012664
:1007100006FA05F1491E214099409E40761E16407A
:100720003143F0BC01F0E4BB0CED00E0064900F001
:10073000070208684FF6FF03184040EA0220034A08
:1007400010430860704700000CED00E00000FA055F
:100750002DE9F0470F46050061D0434E306800F0A8
:100760000700B84209D2306820F0070038433060F3
:10077000306800F00700B84251D128683B4C81072F
:1007800012D5400703D5606840F4E06060602878C7
:10079000000703D5606840F4605060606068A96835
:1007A00020F0F000084360602878C00728D068680F
:1007B000012810D02168022810D0890700292EDADC
:1007C000616821F0030101436160FFF723FF804668
:1007D00041F288390DE021688903EFE78901EDE7EF
:1007E000FFF718FFA0EB0801494502D90320BDE837
:1007F000F0876068696800F00C00B0EB810FEFD102
:10080000306800F00700B8420BD9306820F00700CC
:1008100038433060306800F00700B84201D0012052
:10082000E5E72878400705D56068E96820F4E060CE
:10083000084360602878000706D56068296920F4BD
:10084000605040EAC100606000F038F86168084A12
:10085000C1F30311515CC8400649086006480068AE
:10086000FFF7F8FE0020C2E700200240001002401F
:10087000B12100080C0000200400002004480549B4
:1008800000684968044AC1F30221515CC8407047BE
:100890000C00002000100240C12100080448054956
:1008A00000684968044AC1F3C221515CC8407047DE
:1008B0000C00002000100240C121000812A185B0E8
:1008C0000FC98DE80F0014A0144A00680490516805
:1008D000134801F00C03042B10D0082B0ED1C1F3E8
:1008E0008343C9031DF803000AD5516804AAC1F364
:1008F0004041515C0A4A5043B0FBF1F005B07047EB
:1009000008494843FAE700000203040506070809FE
:100910000A0B0C0D0E0F1010010200000010024017
:1009200000127A0000093D002DE9F84F040070D054
:100930002078C04DC00749D06868C0F38100012805
:1009400007D06868C0F38100022809D16868C00335
:1009500006D52868800339D560680028E7D035E0DF
:100960006068B0F5803F0BD010B1B0F5A02F11D06A
:10097000286820F480302860286820F4802002E075
:10098000286840F480302860606890B1FFF742FE2C
:1009900006460AE0286840F480202860F0E700BF9F
:1009A000FFF738FE801B642873D828688003F7D5CA
:1009B0000CE0FFF72FFE064605E000BFFFF72AFE1A
:1009C000801B6428F0D828688003F7D420789A4EDA
:1009D00080074FF001094FF0000839D5686810F022
:1009E0000C0F07D06868C0F38100022809D168683D
:1009F000C00306D42868800714D52069012808D1CF
:100A000010E02069B0B1C6F80090FFF703FE07467A
:100A100005E00AE1FFF7FEFDC01B0228C4D82868E4
:100A20008007F7D52868616920F0F80040EAC10026
:100A300028600DE0C6F80080FFF7ECFD074604E0F3
:100A4000FFF7E8FDC01B022823D828688007F7D4E9
:100A5000207800072CD57948A169D9B1C0F8009059
:100A6000FFF7D8FD074604E0FFF7D4FDC01B0228BE
:100A70000FD8686A8007F7D571484FF4FA510068BB
:100A8000B0FBF1F0009000BF0098411E0091FAD237
:100A90000EE080E0C0F80080FFF7BCFD074604E0F0
:100AA000FFF7B8FDC01B022875D8686A8007F7D425
:100AB0002078400760D5E8690027C00008D4E869BD
:100AC00040F08050E861E869012700F08050009014
:100AD0005C480168C90513D40168834641F48071FC
:100AE0000160FFF797FD824606E000BFFFF792FD29
:100AF000A0EB0A0064284ED8DBF80000C005F5D54D
:100B0000E06801280AD008B1052813D0286A20F02F
:100B100001002862286A20F0040002E0286A40F000
:100B200001002862E06841F2883B98B1FFF772FD4E
:100B300082460BE0286A40F004002862EEE700BF1E
:100B4000FFF768FDA0EB0A0159455AD8286A8007CB
:100B5000F6D50CE0FFF75EFD824605E0FFF75AFD93
:100B6000A0EB0A0159454CD8286A8007F6D41FB17A
:100B7000E86920F08050E861E06988B36968C1F3F2
:100B80008101022944D00228C6F8608004D0FFF712
:100B900041FD044638E034E0FFF73CFD074604E041
:100BA000FFF738FDC01B02282BD828688001F7D436
:100BB000206AB0F5803F05D16868A16820F4003054
:100BC00008436860D4E908010843696821F4741196
:100BD00008436860C6F86090FFF71CFD044606E015
:100BE00025E000BFFFF716FD001B022809D8286882
:100BF0008001F7D51BE000BFFFF70CFD001B0228AA
:100C000002D90320BDE8F88F28688001F4D40EE0F3
:100C10000128F7D06868226A00F48031914204D13B
:100C2000616A00F47010884201D00120EAE70020D8
:100C3000E8E7000000100240000042428004424207
:100C40000C0000200070004070B5040009D0606AFC
:100C5000002540B125616561A56294F8510040B15D
:100C60000CE0012070BD6068B0F5827FF4D0E561D2
:100C7000F2E784F85050204600F040F8022084F853
:100C800051002068016821F040010160A08821899D
:100C900000F4827001F404410843A18901F4006169
:100CA0000843217C01F002010843217D01F001018C
:100CB0000843218B01F400710843217F01F03801C2
:100CC000084394F8201001F080010843218D01F4BD
:100CD0000051084321680860A069042101EA10401E
:100CE000216848602068C16921F40061C1616565BF
:100CF000012084F85100002070BD000030B585B09F
:100D000000240094019402940394006814498842DA
:100D100023D11448816941F480518161816901F4D2
:100D200080510491816941F00401816180690E4D17
:100D300000F004000490A020009002200190032005
:100D4000039069462846FFF76FFB4020CDE9000479
:100D5000694628460294FFF767FB05B030BD0000E6
:100D60000030014000100240000801402DE9F84F1A
:100D7000044690F8500000271D4616468946012873
:100D80000DD04FF0010B84F850B0FFF743FC8046C4
:100D900094F85100BA46012804D0022793E00220BB
:100DA000BDE8F88FB9F1000F73D0002E71D0032089
:100DB00084F85100C4F854A0C4F83090A686E686A2
:100DC000C4F838A0A4F83CA0A4F83EA0C4F844A0FD
:100DD000C4F840A0A068B0F5004F09D120680168B0
:100DE00021F0400101602068016841F48041016008
:100DF00020680168490603D4016841F040010160A0
:100E0000E068B0F5006F606803D030B3012E24D0E5
:100E100041E008B1012E1CD1206B21680088C86018
:100E200006E020688168890709D5216B0988C160BF
:100E3000206B801C2063E08E401EE08609E0FFF7F7
:100E4000E9FBA0EB0800A84202D3681C01D031E006
:100E50007DB3E08E0028E4D120E0206B216800788B
:100E6000087306E020688168890709D5216B097835
:100E70000173206B401C2063E08E401EE0860AE078
:100E8000FFF7C8FBA0EB0800A84203D3681C02D000
:100E900010E017E06DB1E08E0028E3D1424629460C
:100EA000204600F02CFE08B120206065A06818B133
:100EB00006E0FFE7032706E02068C168806800902D
:100EC000606D00B1012784F851B084F850A0384615
:100ED00066E710B5401EB0F1807F01D3012010BD40
:100EE0004FF0E02460610F21601701F001F800204D
:100EF000A06107202061002010BD704770470000EE
:100F0000F8B5026804461068D168536910F00F0FF5
:100F10004FF0000553D003F0010601F490773743FA
:100F20005FD0C20705D0CA0503D5226C42F001028A
:100F30002264420705D5DA0703D0226C42F0020290
:100F40002264820705D5DA0703D0226C42F004023E
:100F50002264020707D501F02002324303D0226C3D
:100F600042F008022264226C002A34D0800604D5A4
:100F7000880602D5204600F088FE20684069216C72
:100F8000C0F38010090700D430B3204600F065FE9E
:100F90002068416949061BD5416921F04001416142
:100FA000A06BA8B158494163A06BFFF7DFF9002897
:100FB00011D0A06B416B01B0BDE8F040084783063B
:100FC0000FD58B060DD52046BDE8F84000F05DBE7C
:100FD0002046FFF793FFF8BD2046FFF78FFF2564FB
:100FE000F8BD266B2023012E52D1C60650D5CE0661
:100FF0004ED5106850680090506940062AD5A16B04
:10100000086840680004000CEAD0A68D8642E7D943
:10101000E0858869202818D0D06820F48070D060DE
:101020002068416921F0010141612068416921F096
:101030004001416184F83E3025632068C16821F099
:101040001001C160A06BFFF76DF9A08DE18D401A12
:1010500081B219E0A08DE18D401A81B2E08D0028A7
:10106000BED00029BCD0D06820F49070D060206839
:10107000426922F00102426184F83E302563206813
:10108000C26822F01002C2602046FFF736FFF8BDAA
:1010900005062BD50D0629D594F83D002128F6D15B
:1010A000A068B0F5805F01D12069B0B1206A411C11
:1010B0002162216800784860E08C401E0004000C2A
:1010C000E084E4D12068C16821F08001C16020681B
:1010D000C16841F04001C160F8BD206A0088C0F3DA
:1010E00008005060206A801C2062E5E74006F3D5C6
:1010F0004806F1D5D168204621F04001D16084F83E
:101100003D3000F0B7F8F8BD4B1C000870B5040086
:1011100004D094F83D00002510B106E0012070BD18
:1011200084F83C50204600F023F8242084F83D0049
:101130002068C16821F40051C160204600F000FE23
:101140002068016921F4904101612068416921F022
:101150002A0141612068C16841F40051C1602564E1
:10116000202084F83D0084F83E00002070BD00007F
:1011700030B585B000240094019402940394006873
:10118000184988422CD11848816941F48041816115
:10119000816901F480410491816941F00401816118
:1011A0008069124D00F0040004904FF4007000902C
:1011B000022001900320039069462846FFF734F986
:1011C0002815CDE90004694628460294FFF72CF95A
:1011D000002211462520FFF789FA2520FFF778FA2B
:1011E00005B030BD00380140001002400008014049
:1011F00090F83E30202B0ED159B152B190F83C30CE
:10120000012B08D0012380F83C300023036300F059
:10121000F3BD0120704702207047000070B54222E4
:1012200012491348FFF7E4FF104D95F8412095F857
:10123000400002F1080300F10801FFF728F800243C
:101240004FF6FF76285D01280BD0002000F036FE17
:101250005FF0000000F032FE641CA4B2402CF1D319
:1012600070BD304600F02AFE3046F3E71000002043
:10127000AC0000207047FEE710B501220421FE48B3
:10128000FFF7C2F91E20FFF7BDF8FE2000F0D8FDE1
:10129000012000F0EFFD042000F0D2FDA02000F0BE
:1012A000E9FD052000F0CCFD702000F0E3FD0620F4
:1012B00000F0C6FD3C2000F0DDFD252000F0C0FD63
:1012C000062000F0D7FD262000F0BAFD802000F0B7
:1012D000D1FD272000F0B4FD122000F0CBFD282026
:1012E00000F0AEFD122000F0C5FD2A2000F0A8FDA0
:1012F000062000F0BFFD2B2000F0A2FD802000F0B2
:10130000B9FD2D2000F09CFD122000F0B3FD2F2030
:1013100000F096FD122000F0ADFD372000F090FDAA
:101320000C2000F0A7FD6D2000F08AFD182000F0D1
:10133000A1FD292000F084FD012000F09BFD30205C
:1013400000F07EFD432000F095FD0E2000F078FDBA
:10135000832000F08FFD0F2000F072FD832000F04D
:1013600089FD102000F06CFD712000F083FD11203C
:1013700000F066FDB32000F07DFD122000F060FD5E
:10138000B32000F077FD132000F05AFD802000F01C
:1013900071FD142000F054FD802000F06BFD15203D
:1013A00000F04EFD812000F065FD162000F048FDA4
:1013B000812000F05FFD182000F042FD662000F063
:1013C00059FD192000F03CFD442000F053FD1E2083
:1013D00000F036FD022000F04DFD5B2000F030FDF6
:1013E000102000F047FD622000F02AFD192000F0D7
:1013F00041FD632000F024FD192000F03BFD70202A
:1014000000F01EFD552000F035FD1D2000F018FDF8
:10141000022000F02FFD892000F012FD182000F0BE
:1014200029FD8A2000F00CFDB92000F023FD8B205F
:1014300000F006FD012000F01DFD8C2000F000FDF5
:10144000102000F017FD8D2000F0FAFC902000F035
:1014500011FD8E2000F0F4FC012000F00BFD6E2049
:1014600000F0EEFC0A2000F005FD6A2000F0E8FC28
:10147000052000F0FFFC3A2000F0E2FC082000F01C
:10148000F9FC3B2000F0DCFC002000F0F3FC3D20E8
:1014900000F0D6FC162000F0EDFC3F2000F0D0FC60
:1014A000272000F0E7FC402000F0CAFC0F2000F0ED
:1014B000E1FC412000F0C4FC0D2000F0DBFC4220E8
:1014C00000F0BEFC142000F0D5FC432000F0B8FC76
:1014D000412000F0CFFC442000F0B2FC252000F0B9
:1014E000C9FC452000F0ACFC522000F0C3FC4620B3
:1014F00000F0A6FC362000F0BDFC472000F0A0FC68
:10150000632000F0B7FC482000F09AFC142000F0A3
:10151000B1FC492000F094FC412000F0ABFC4A20D3
:1015200000F08EFC252000F0A5FC4B2000F088FC8C
:10153000522000F09FFC4C2000F082FC362000F08E
:1015400099FC4D2000F07CFC632000F093FC4E20C1
:1015500000F076FC142000F08DFC4F2000F070FCB1
:10156000412000F087FC502000F06AFC252000F0AC
:1015700081FC512000F064FC522000F07BFC5220E2
:1015800000F05EFC362000F075FC532000F058FCA3
:10159000632000F06FFC542000F052FC142000F097
:1015A00069FC552000F04CFC412000F063FC562003
:1015B00000F046FC252000F05DFC572000F040FCC8
:1015C000522000F057FC582000F03AFC362000F082
:1015D00051FC592000F034FC632000F04BFC6620E5
:1015E00000F02EFC902000F045FC672000F028FC65
:1015F000402000F03FFC722000F022FC1A2000F096
:1016000039FC732000F01CFC072000F033FC742030
:1016100000F016FC0C2000F02DFC6A2000F010FCFD
:101620003D2000F027FC6B2000F00AFC292000F090
:1016300021FCFE2000F004FC042000F01BFC5E20D6
:1016400000F0FEFB012000F015FC5F2000F0F8FB2D
:10165000B82000F00FFC602000F0F2FBBB2000F08F
:1016600009FC612000F0ECFBBB2000F003FC6220D1
:1016700000F0E6FBBB2001E00008014000F0FAFBAF
:10168000762000F0DDFBBB2000F0F4FB772000F0BB
:10169000D7FB3B2000F0EEFB782000F0D1FB92203E
:1016A00000F0E8FB792000F0CBFBBB2000F0E2FB70
:1016B0007A2000F0C5FBBB2000F0DCFB002000F02E
:1016C000BFFBDC2000F0D6FB012000F0B9FB0020BE
:1016D00000F0D0FB022000F0B3FB022000F0CAFBB8
:1016E000032000F0ADFB002000F0C4FB042000F05C
:1016F000A7FB082000F0BEFB052000F0A1FB0120A5
:1017000000F0B8FB062000F09BFB702000F0B2FB5D
:10171000072000F095FB0A2000F0ACFB082000F049
:101720008FFB002000F0A6FB092000F089FBDC20E5
:1017300000F0A0FB0A2000F083FB002000F09AFBE1
:101740000B2000F07DFB022000F094FB0C2000F049
:1017500077FB002000F08EFB0D2000F071FB0820CD
:1017600000F088FB0E2000F06BFB002000F082FBF5
:101770000F2000F065FB702000F07CFB102000F0D3
:101780005FFB0A2000F076FB112000F059FB0020DF
:1017900000F070FB122000F053FBCC2000F06AFB3D
:1017A000132000F04DFB002000F064FB142000F03B
:1017B00047FB022000F05EFB152000F041FB0020FB
:1017C00000F058FB162000F03BFB202000F052FBFD
:1017D000172000F035FB002000F04CFB182000F033
:1017E0002FFB282000F046FB192000F029FB2620C3
:1017F00000F040FB1A2000F023FB002000F03AFB31
:101800001B2000F01DFBCC2000F034FB1C2000F05E
:1018100017FB002000F02EFB1D2000F011FB022022
:1018200000F028FB1E2000F00BFB002000F022FB44
:101830001F2000F005FB202000F01CFB202000F002
:10184000FFFA012000F016FB212000F0F9FA282011
:1018500000F010FB222000F0F3FA262000F00AFB33
:10186000232000F0EDFA002000F004FB4C2000F0F3
:10187000E7FA892000F0FEFA4D2000F0E1FA00209E
:1018800000F0F8FA4E2000F0DBFA012000F0F2FA46
:101890004F2000F0D5FA002000F0ECFA502000F0C4
:1018A000CFFA012000F0E6FA512000F0C9FABB207F
:1018B00000F0E0FA522000F0C3FABB2000F0DAFAA0
:1018C000532000F0BDFACA2000F0D4FA542000F0F2
:1018D000B7FA002000F0CEFA552000F0B1FA03204C
:1018E00000F0C8FA562000F0ABFA002000F0C2FA6F
:1018F000582000F0A5FA002000F0BCFA592000F0B2
:101900009FFA002000F0B6FA652000F099FA452011
:1019100000F0B0FA662000F093FA0C2000F0AAFA6A
:10192000672000F08DFA002000F0A4FAFE2000F0FD
:1019300087FA012000F09EFAE52000F081FA0020ED
:1019400000F098FAE62000F07BFA102000F092FAFE
:10195000E72000F075FA312000F08CFAFE2000F04C
:101960006FFA002000F086FAC42000F069FA8020A7
:1019700000F080FA2A2000F063FA002000F07AFAE2
:10198000042000F077FA002000F074FA7B2000F0C9
:1019900071FA112000F054FA002000F06BFA962042
:1019A000FEF730FD292000F04BFABDE81040002082
:1019B00000F060BA2DE9FC4190461F46089A1A4B88
:1019C000054602EB820200201A446C46135C235445
:1019D000401C80B20528F9D301F1080083B2A81C8D
:1019E00080B20A4601462846FEF751FC0026002533
:1019F000605DC00704D0404600F060FA404603E056
:101A0000384600F05BFA384600F058FA605D40084E
:101A100060556D1CADB2082DEAD3761CB6B2082E07
:101A2000E5D3BDE8FC810000681F000830B585B033
:101A3000002410480094019402940394816941F0B9
:101A40000401816180690C4D00F00400049022467D
:101A50001C212846FEF7D8FD1C2000900120CDE96E
:101A600001040220039069462846FEF7DDFC05B01C
:101A700030BD000000100240000801400F4810B5C2
:101A80000D4901604FF48271416000218160C160A5
:101A90004FF400720161C0E90512C1610162416247
:101AA00081620A21C162FFF7CFF8002803D0BDE8A8
:101AB0001040FEF735BC10BD00300140540000203E
:101AC0000C4810B50A4901604FF4E1314160002132
:101AD00081600C22C160C0E904128161C161FFF71D
:101AE00015FB002803D0BDE81040FEF719BC10BD5F
:101AF00000380140AC000020FEE7FEE7704738B533
:101B00000B46009204460022802100F009F80028CC
:101B100004D0606D40F020006065032038BD0000F7
:101B20002DE9F8431E46914688460446089DFEF777
:101B300071FD401B351AFEF76DFD0746254800680C
:101B4000C0F3CB30684338E0701C37D0FEF762FD3D
:101B5000C01BA84203D215B1009860B32CE02068E6
:101B6000416821F0E00141606068B0F5827F0BD1EF
:101B7000A068B0F5004F02D0B0F5806F04D12068A6
:101B8000016821F040010160A06AB0F5005F09D151
:101B90002068016821F4005101602068016841F467
:101BA00000510160012084F85100002084F85000A9
:101BB0000320BDE8F8830025401E0090206881685E
:101BC00038EA010004D000214945BDD10020F0E7EA
:101BD0000121F9E70C0000207047000001B54FF02B
:101BE000FF33012269460248FFF7C0F808BD000034
:101BF00054000020FEF714BD10B590B028216846AF
:101C0000FEF7E2FA14210AA8FEF7DEFA022000909D
:101C10000120049010200024059007946846FEF7E8
:101C200083FE08B172B6FEE70F20CDE90A040C94DA
:101C30000D9400210AA80E94FEF78AFD002801D019
:101C400072B6FEE710B010BD704710B5406A0021B3
:101C5000C185C184FFF752F910BD0168CA6822F43A
:101C60009072CA6001684A6922F001024A61016B00
:101C7000012904D10168CA6822F01002CA6020213B
:101C800080F83E1000210163704708B590F83E10BF
:101C9000222901D0022008BD82684FF480539A4265
:101CA00001D1016921B1816A9A421BD04AB10AE08F
:101CB0000268816A5268C2F308020A80816A891C3C
:101CC00008E0026972B10268526802F07F020A708D
:101CD000816A491C8162C18D491E0904090CC185B4
:101CE00003D019E002685268F1E70168CA6822F07F
:101CF0002002CA600168CA6822F48072CA60016862
:101D00004A6922F001024A61202180F83E10016BED
:101D1000012903D0FFF782FA002008BD00210163EA
:101D20000168CA6822F01002CA6001680A68D20617
:101D300002D50A6849680091818DFFF7DEF8EBE76C
:101D400070B5044600680169E26821F4405111430E
:101D500001612169A0680843616908432168CA6874
:101D600041F20C639A430243CA6020684169A26948
:101D700021F44071114341611E492068884202D11B
:101D8000FEF78CFD01E0FEF779FD00EBC00101EBF1
:101D90000012606864218000B2FBF0F3B3FBF1F342
:101DA0006FF018067343B2FBF0F5B2FBF0F605EBEB
:101DB0008305322303EB0515B5FBF1F5B6FBF1F610
:101DC00005F0F00505EB0615B2FBF0F6B2FBF0F0FE
:101DD000B0FBF1F06FF01802504306EB800003EB0C
:101DE0000010B0FBF1F0216800F00F00284488607B
:101DF00070BD00000038014081628285C2850021EB
:101E00000164222280F83E2080F83C100168CA68F4
:101E100042F48072CA6001684A6942F001024A6174
:101E20000068C16841F02001C160002070470000D7
:101E30000148FFF765B80000AC000020FEE7000095
:101E400070B50B4D0446002210212846FEF7DCFB3E
:101E5000002208212846FEF7D7FBE0B2FFF7BEFEBE
:101E60002846BDE8704001221021FEF7CDBB0000DE
:101E70000008014070B50B4D044600221021284691
:101E8000FEF7C2FB012208212846FEF7BDFBE0B2A7
:101E9000FFF7A4FE2846BDE8704001221021FEF79E
:101EA000B3BB00000008014010B50C46FFF796FEDA
:101EB0002046BDE81040FFF791BE000070B50B4D05
:101EC0000446002210212846FEF79EFB012208212D
:101ED0002846FEF799FB210AE0B2FFF7E5FF284606
:101EE000BDE8704001221021FEF78EBB00080140C2
:101EF0000907090E002804DB00F1E02080F8001437
:101F0000704700F00F0000F1E02080F8141D7047CA
:101F100008B5FEF78DFBFFF76FFEFFF787FDFFF7B4
:101F2000ADFDFFF7CDFDFFF7A7F942220C490D48A3
:101F3000FFF75EF91E214AF6AA220846FEF7D0F9FD
:101F40001E2100220846FEF7CBF903202021009035
:101F500000234FF6FF720846FFF72CFDFEE7000056
:101F600010000020AC000020000000000000004F26
:101F700000000007000700147F147F14242A7F2A22
:101F800012231308646236495522500005030000ED
:101F9000001C2241000041221C0014083E081408C5
:101FA000083E0808005030000008080808080060D3
:101FB00060000020100804023E5149453E00427F67
:101FC000400042615149462141454B311814127F6E
:101FD0001027454545393C4A4949300171090503F7
:101FE0003649494936064949291E0036360000005F
:101FF0005636000008142241001414141414004131
:102000002214080201510906324979413E7E11111C
:10201000117E7F494949363E414141227F4141225B
:102020001C7F494949417F090909013E4149497AD3
:102030007F0808087F00417F41002040413F017F29
:10204000081422417F404040407F020C027F7F0401
:1020500008107F3E4141413E7F090909063E41513A
:10206000215E7F09192946464949493101017F010D
:10207000013F4040403F1F2040201F3F4038403F2D
:102080006314081463070870080761514945430049
:102090007F41410002040810200041417F000402FA
:1020A000010204404040404000010204002054541A
:1020B00054787F48444438384444442038444448A1
:1020C0007F3854545418087E0901020C5252523E73
:1020D0007F0804047800447D40002040443D007F98
:1020E0001028440000417F40007C041804787C08DC
:1020F00004047838444444387C1414140808141434
:10210000187C7C080404084854545420043F44407C
:10211000203C4040207C1C2040201C3C4030403C67
:1021200044281028440C5050503C4464544C440003
:102130000836410000007F00000041360800080416
:1021400008100808082A1C08081C2A080804027F2E
:10215000020410207F201015167C1615033B444402
:102160004403037C1414442810284408082A08084F
:10217000384448302CF85454542828545444203EB1
:102180004909090638444C5424403F08081F1F08D9
:10219000083F403C4A4A4A3C5864046458443C0462
:1021A0007C4430281028183028242830081C0808BF
:1021B0000E000000000000000001020304060708F2
:1021C000090000000001020304000000EC210008E7
:1021D000000000201000000028010008FC21000879
:1021E000100000204007000044010008010000002A
:0C21F00010000000000000000024F400BB
:04000005080000ED02
:00000001FF
