:020000040800F2
:1000000020070020890100087F1B0008F912000862
:100010007D1B00081D030008251F000800000000CC
:100020000000000000000000000000005D1C00084F
:100030001F03000800000000811B0008791C000855
:10004000A3010008A3010008A3010008A301000800
:10005000A3010008A3010008A3010008A3010008F0
:10006000A3010008A3010008A3010008A3010008E0
:10007000A3010008A3010008A3010008A3010008D0
:10008000A3010008A3010008A3010008A3010008C0
:10009000A3010008A3010008A3010008A3010008B0
:1000A000A3010008A3010008A3010008A3010008A0
:1000B000A3010008A3010008A3010008A301000890
:1000C000A3010008A3010008A3010008A301000880
:1000D000A3010008191F0008A3010008A3010008DC
:1000E000A3010008A3010008A301000800F002F822
:1000F00000F03AF80AA090E8000C82448344AAF188
:100100000107DA4501D100F02FF8AFF2090EBAE885
:100110000F0013F0010F18BFFB1A43F0010318473B
:1001200094210000B4210000103A24BF78C878C19F
:10013000FAD8520724BF30C830C144BF04680C60ED
:10014000704700000023002400250026103A28BF35
:1001500078C1FBD8520728BF30C148BF0B60704739
:100160001FB51FBD10B510BD00F058F81146FFF7C0
:10017000F7FF01F041FF00F076F803B4FFF7F2FF5C
:1001800003BC00F07DF8000009488047094800479B
:10019000FEE7FEE7FEE7FEE7FEE7FEE7FEE7FEE737
:1001A000FEE7FEE704480549054A064B7047000094
:1001B000CD1C0008ED0000082001002020070020D1
:1001C00020030020200300204FF0000200B513465A
:1001D00094469646203922BFA0E80C50A0E80C5067
:1001E000B1F12001BFF4F7AF090728BFA0E80C5018
:1001F00048BF0CC05DF804EB890028BF40F8042B11
:1002000008BF704748BF20F8022B11F0804F18BF7D
:1002100000F8012B7047704770477047754600F033
:100220002BF8AE4605006946534620F00700854688
:1002300018B020B5FFF7B6FFBDE820404FF000062C
:100240004FF000074FF000084FF0000B21F00701BE
:10025000AC46ACE8C009ACE8C009ACE8C009ACE801
:10026000C0098D46704710B50446AFF300802046A4
:10027000BDE81040FFF781BF00487047C000002074
:1002800001491820ABBEFEE72600020070472DE9A9
:10029000F04107461C4615460E462A2001F044FE52
:1002A000380A01F05BFEF8B201F058FE300A01F0A6
:1002B00055FEF0B201F052FE2B2001F035FE280A67
:1002C00001F04CFEE8B201F049FE200A01F046FEC2
:1002D000E0B201F043FEBDE8F0412C2001F024BE65
:1002E0002DE9F0410746481E83B290460E46781E1F
:1002F00081B200221046FFF7CAFF00250AE0002461
:1003000004E0404601F04EFE641CA4B2B442F8D3AF
:100310006D1CADB2BD42F2D3BDE8F081FEE770477F
:1003200072B6FEE710B590F821100022022905D020
:100330000421816380F82020012010BD01680B6832
:1003400023F00E030B6001680B6823F001030B60C0
:1003500090F84030C46B012101FA03F3636080F828
:10036000211080F82020104610BD000010B590F834
:1003700021100024022903D00421816301243DE0DF
:1003800001680A6822F00E020A6001680A6822F019
:1003900001020A601A4A0168914201D1012121E05B
:1003A000174A1432914201D110211BE0144A28321D
:1003B000914201D1891515E0114A3C32914201D197
:1003C00089140FE00E4A5032914202D14FF480312D
:1003D00008E00B4A6432914202D14FF4801101E0EF
:1003E0004FF08071064A083A5160012180F82110CF
:1003F000002180F82010416B01B18847204610BDD4
:100400000800024070B5044600F004F90546601C7F
:1004100002D004480078044400F0FCF8401BA042DD
:10042000FAD370BD000000202DE9F84FDFF8B89135
:10043000002409F1040A0AF1040B23460F270BF1EB
:10044000040EC9E00125A5402A40AA427DD1674E8D
:10045000D1F804C0ACEB0608B44532D014DCBCF1D2
:10046000030F3AD009DCBCF1000F2AD0BCF1010F18
:100470001CD0BCF1020F31D11DE0BCF1110F17D01F
:10048000BCF1120F2AD119E0B8F5881F19D006DC8B
:10049000B8F5803F15D0B8F5801F1FD111E0B8F531
:1004A000001F0ED0B8F5041F18D10AE0CB6815E084
:1004B000CB681B1D12E0CB6808330FE0CB680C3310
:1004C0000CE08B682BB1012B4FF0080303D0456182
:1004D00004E0042302E0056100E00023FF2A01D8C4
:1004E000064601E000F104064FEA840501D9A5F1B2
:1004F0002005D6F8008007FA05FC28EA0C0803FA64
:1005000005F548EA0508C6F800804D68ED0062D59B
:10051000374DAE6946F00106AE61AD6924F00306C1
:1005200005F001050095334D06EB050CDCF808508D
:10053000A607360F07FA06F825EA0805DFF8B8809F
:10054000404503D14FF0000817E044E0DFF8AC80ED
:10055000404502D14FF001080FE0DFF8A48040458C
:1005600002D14FF0020808E0DFF89880404502D140
:100570004FF0030801E04FF0040808FA06F848EAD3
:100580000508CCF808804D68D9F80060ED034D46A9
:1005900001D5164300E096432E604D68DAF80060FE
:1005A000AD03554601D5164300E096432E604D68D5
:1005B000DBF80060ED025D4601D5164300E096438E
:1005C0002E604D68DEF80060AD02754601D5164319
:1005D00000E096432E60641C0D682A46E5407FF4D7
:1005E00031AFBDE8F88F0000000401400000111099
:1005F000001002400000014000080140000C0140D2
:1006000000100140001401400AB101617047090463
:10061000FBE70000014880687047000000000020F0
:100620000248816802781144816070470000002010
:10063000074810B5016841F010010160032000F087
:1006400075F80F2000F006F800F024F8002010BD27
:100650000020024070B50D4D04464FF47A712878A1
:10066000B1FBF0F00A490968B1FBF0F000F031FC91
:1006700048B9102C07D200222146501E00F036F84F
:1006800000206C6070BD012070BD000000000020E3
:100690000C0000200C4808B5816941F0010181611E
:1006A000816901F001010091C16941F08051C1618E
:1006B000C06900F0805000900448416821F0E0617A
:1006C00041F00071416008BD00100240000001408F
:1006D000002809DB00F01F02012191404009800041
:1006E00000F1E020C0F8001170470000F0B40E4B9C
:1006F0001B680C46C3F30223C3F10705042D00D980
:100700000425191D072901D2002300E0DB1E012664
:1007100006FA05F1491E214099409E40761E16407A
:100720003143F0BC01F058BC0CED00E0064900F08C
:10073000070208684FF6FF03184040EA0220034A08
:1007400010430860704700000CED00E00000FA055F
:100750002DE9F0470F46050061D0434E306800F0A8
:100760000700B84209D2306820F0070038433060F3
:10077000306800F00700B84251D128683B4C81072F
:1007800012D5400703D5606840F4E06060602878C7
:10079000000703D5606840F4605060606068A96835
:1007A00020F0F000084360602878C00728D068680F
:1007B000012810D02168022810D0890700292EDADC
:1007C000616821F0030101436160FFF723FF804668
:1007D00041F288390DE021688903EFE78901EDE7EF
:1007E000FFF718FFA0EB0801494502D90320BDE837
:1007F000F0876068696800F00C00B0EB810FEFD102
:10080000306800F00700B8420BD9306820F00700CC
:1008100038433060306800F00700B84201D0012052
:10082000E5E72878400705D56068E96820F4E060CE
:10083000084360602878000706D56068296920F4BD
:10084000605040EAC100606000F038F86168084A12
:10085000C1F30311515CC8400649086006480068AE
:10086000FFF7F8FE0020C2E700200240001002401F
:10087000992200080C0000200400002004480549CB
:1008800000684968044AC1F30221515CC8407047BE
:100890000C00002000100240A9220008044805496D
:1008A00000684968044AC1F3C221515CC8407047DE
:1008B0000C00002000100240A922000812A185B0FF
:1008C0000FC98DE80F0014A0144A00680490516805
:1008D000134801F00C03042B10D0082B0ED1C1F3E8
:1008E0008343C9031DF803000AD5516804AAC1F364
:1008F0004041515C0A4A5043B0FBF1F005B07047EB
:1009000008494843FAE700000203040506070809FE
:100910000A0B0C0D0E0F1010010200000010024017
:1009200000127A0000093D002DE9F84F040070D054
:100930002078C04DC00749D06868C0F38100012805
:1009400007D06868C0F38100022809D16868C00335
:1009500006D52868800339D560680028E7D035E0DF
:100960006068B0F5803F0BD010B1B0F5A02F11D06A
:10097000286820F480302860286820F4802002E075
:10098000286840F480302860606890B1FFF742FE2C
:1009900006460AE0286840F480202860F0E700BF9F
:1009A000FFF738FE801B642873D828688003F7D5CA
:1009B0000CE0FFF72FFE064605E000BFFFF72AFE1A
:1009C000801B6428F0D828688003F7D420789A4EDA
:1009D00080074FF001094FF0000839D5686810F022
:1009E0000C0F07D06868C0F38100022809D168683D
:1009F000C00306D42868800714D52069012808D1CF
:100A000010E02069B0B1C6F80090FFF703FE07467A
:100A100005E00AE1FFF7FEFDC01B0228C4D82868E4
:100A20008007F7D52868616920F0F80040EAC10026
:100A300028600DE0C6F80080FFF7ECFD074604E0F3
:100A4000FFF7E8FDC01B022823D828688007F7D4E9
:100A5000207800072CD57948A169D9B1C0F8009059
:100A6000FFF7D8FD074604E0FFF7D4FDC01B0228BE
:100A70000FD8686A8007F7D571484FF4FA510068BB
:100A8000B0FBF1F0009000BF0098411E0091FAD237
:100A90000EE080E0C0F80080FFF7BCFD074604E0F0
:100AA000FFF7B8FDC01B022875D8686A8007F7D425
:100AB0002078400760D5E8690027C00008D4E869BD
:100AC00040F08050E861E869012700F08050009014
:100AD0005C480168C90513D40168834641F48071FC
:100AE0000160FFF797FD824606E000BFFFF792FD29
:100AF000A0EB0A0064284ED8DBF80000C005F5D54D
:100B0000E06801280AD008B1052813D0286A20F02F
:100B100001002862286A20F0040002E0286A40F000
:100B200001002862E06841F2883B98B1FFF772FD4E
:100B300082460BE0286A40F004002862EEE700BF1E
:100B4000FFF768FDA0EB0A0159455AD8286A8007CB
:100B5000F6D50CE0FFF75EFD824605E0FFF75AFD93
:100B6000A0EB0A0159454CD8286A8007F6D41FB17A
:100B7000E86920F08050E861E06988B36968C1F3F2
:100B80008101022944D00228C6F8608004D0FFF712
:100B900041FD044638E034E0FFF73CFD074604E041
:100BA000FFF738FDC01B02282BD828688001F7D436
:100BB000206AB0F5803F05D16868A16820F4003054
:100BC00008436860D4E908010843696821F4741196
:100BD00008436860C6F86090FFF71CFD044606E015
:100BE00025E000BFFFF716FD001B022809D8286882
:100BF0008001F7D51BE000BFFFF70CFD001B0228AA
:100C000002D90320BDE8F88F28688001F4D40EE0F3
:100C10000128F7D06868226A00F48031914204D13B
:100C2000616A00F47010884201D00120EAE70020D8
:100C3000E8E7000000100240000042428004424207
:100C40000C0000200070004070B5040009D0606AFC
:100C5000002540B125616561A56294F8510040B15D
:100C60000CE0012070BD6068B0F5827FF4D0E561D2
:100C7000F2E784F85050204600F040F8022084F853
:100C800051002068016821F040010160A08821899D
:100C900000F4827001F404410843A18901F4006169
:100CA0000843217C01F002010843217D01F001018C
:100CB0000843218B01F400710843217F01F03801C2
:100CC000084394F8201001F080010843218D01F4BD
:100CD0000051084321680860A069042101EA10401E
:100CE000216848602068C16921F40061C1616565BF
:100CF000012084F85100002070BD000030B585B09F
:100D000000240094019402940394006814498842DA
:100D100023D11448816941F480518161816901F4D2
:100D200080510491816941F00401816180690E4D17
:100D300000F004000490A020009002200190032005
:100D4000039069462846FFF76FFB4020CDE9000479
:100D5000694628460294FFF767FB05B030BD0000E6
:100D60000030014000100240000801402DE9F84F1A
:100D7000044690F8500000271D4616468946012873
:100D80000DD04FF0010B84F850B0FFF743FC8046C4
:100D900094F85100BA46012804D0022793E00220BB
:100DA000BDE8F88FB9F1000F73D0002E71D0032089
:100DB00084F85100C4F854A0C4F83090A686E686A2
:100DC000C4F838A0A4F83CA0A4F83EA0C4F844A0FD
:100DD000C4F840A0A068B0F5004F09D120680168B0
:100DE00021F0400101602068016841F48041016008
:100DF00020680168490603D4016841F040010160A0
:100E0000E068B0F5006F606803D030B3012E24D0E5
:100E100041E008B1012E1CD1206B21680088C86018
:100E200006E020688168890709D5216B0988C160BF
:100E3000206B801C2063E08E401EE08609E0FFF7F7
:100E4000E9FBA0EB0800A84202D3681C01D031E006
:100E50007DB3E08E0028E4D120E0206B216800788B
:100E6000087306E020688168890709D5216B097835
:100E70000173206B401C2063E08E401EE0860AE078
:100E8000FFF7C8FBA0EB0800A84203D3681C02D000
:100E900010E017E06DB1E08E0028E3D1424629460C
:100EA000204600F06EFE08B120206065A06818B1F1
:100EB00006E0FFE7032706E02068C168806800902D
:100EC000606D00B1012784F851B084F850A0384615
:100ED00066E710B5401EB0F1807F01D3012010BD40
:100EE0004FF0E02460610F21601701F075F80020D9
:100EF000A06107202061002010BD704770470000EE
:100F0000F8B5026804461068D168536910F00F0FF5
:100F10004FF0000553D003F0010601F490773743FA
:100F20005FD0C20705D0CA0503D5226C42F001028A
:100F30002264420705D5DA0703D0226C42F0020290
:100F40002264820705D5DA0703D0226C42F004023E
:100F50002264020707D501F02002324303D0226C3D
:100F600042F008022264226C002A34D0800604D5A4
:100F7000880602D5204600F0CAFE20684069216C30
:100F8000C0F38010090700D430B3204600F0A7FE5C
:100F90002068416949061BD5416921F04001416142
:100FA000A06BA8B158494163A06BFFF7DFF9002897
:100FB00011D0A06B416B01B0BDE8F040084783063B
:100FC0000FD58B060DD52046BDE8F84000F09FBE3A
:100FD0002046FFF793FFF8BD2046FFF78FFF2564FB
:100FE000F8BD266B2023012E52D1C60650D5CE0661
:100FF0004ED5106850680090506940062AD5A16B04
:10100000086840680004000CEAD0A68D8642E7D943
:10101000E0858869202818D0D06820F48070D060DE
:101020002068416921F0010141612068416921F096
:101030004001416184F83E3025632068C16821F099
:101040001001C160A06BFFF76DF9A08DE18D401A12
:1010500081B219E0A08DE18D401A81B2E08D0028A7
:10106000BED00029BCD0D06820F49070D060206839
:10107000426922F00102426184F83E302563206813
:10108000C26822F01002C2602046FFF736FFF8BDAA
:1010900005062BD50D0629D594F83D002128F6D15B
:1010A000A068B0F5805F01D12069B0B1206A411C11
:1010B0002162216800784860E08C401E0004000C2A
:1010C000E084E4D12068C16821F08001C16020681B
:1010D000C16841F04001C160F8BD206A0088C0F3DA
:1010E00008005060206A801C2062E5E74006F3D5C6
:1010F0004806F1D5D168204621F04001D16084F83E
:101100003D3000F0F8F8F8BDCF1C000870B50400C1
:1011100004D094F83D00002510B106E0012070BD18
:1011200084F83C50204600F023F8242084F83D0049
:101130002068C16821F40051C160204600F042FEE1
:101140002068016921F4904101612068416921F022
:101150002A0141612068C16841F40051C1602564E1
:10116000202084F83D0084F83E00002070BD00007F
:1011700030B585B000240094019402940394006873
:10118000184988422CD11848816941F48041816115
:10119000816901F480410491816941F00401816118
:1011A0008069124D00F0040004904FF4007000902C
:1011B000022001900320039069462846FFF734F986
:1011C0002815CDE90004694628460294FFF72CF95A
:1011D000002211462520FFF789FA2520FFF778FA2B
:1011E00005B030BD00380140001002400008014049
:1011F00090F83E30202B0ED159B152B190F83C30CE
:10120000012B08D0012380F83C300023036300F059
:1012100035BE0120704702207047000010B5012242
:1012200006490748FFF7E4FFBDE8104040F6FF73AA
:1012300001220249024800F005B800001000002019
:101240007C0000202DE9F843044690F83D001F463D
:1012500016460D4620284CD1C5B1BEB194F83C00CD
:10126000012846D0012084F83C004FF00008C4F863
:101270004080212084F83D00FFF7CCF9A684814608
:10128000E684A068B0F5805F03D004E00120BDE8EB
:10129000F883206928B12E465FF0000584F83C8071
:1012A0000EE00026FAE78021204600F002FEA0B9F9
:1012B000AEB116F8010B21684860E08C401EE08456
:1012C000E08C4B464FF0000200970028EBD14FF026
:1012D0004001204600F0EDFD30B10320D7E735F89E
:1012E000020BC0F30800E6E7202084F83D00002050
:1012F000CDE70220CBE77047FEE7000010B50122E2
:101300000421FE48FFF780F91E20FFF77BF8FE203E
:1013100000F00AFE012000F021FE042000F004FE8F
:10132000A02000F01BFE052000F0FEFD702000F064
:1013300015FE062000F0F8FD3C2000F00FFE2520F1
:1013400000F0F2FD062000F009FE262000F0ECFD82
:10135000802000F003FE272000F0E6FD122000F0C0
:10136000FDFD282000F0E0FD122000F0F7FD2A200E
:1013700000F0DAFD062000F0F1FD2B2000F0D4FD96
:10138000802000F0EBFD2D2000F0CEFD122000F0BB
:10139000E5FD2F2000F0C8FD122000F0DFFD372012
:1013A00000F0C2FD0C2000F0D9FD6D2000F0BCFD66
:1013B000182000F0D3FD292000F0B6FD012000F038
:1013C000CDFD302000F0B0FD432000F0C7FD0E2021
:1013D00000F0AAFD832000F0C1FD0F2000F0A4FD65
:1013E000832000F0BBFD102000F09EFD712000F076
:1013F000B5FD112000F098FDB32000F0AFFD1220E4
:1014000000F092FDB32000F0A9FD132000F08CFD48
:10141000802000F0A3FD142000F086FD802000F065
:101420009DFD152000F080FD812000F097FD162025
:1014300000F07AFD812000F091FD182000F074FD8D
:10144000662000F08BFD192000F06EFD442000F0B6
:1014500085FD1E2000F068FD022000F07FFD5B206E
:1014600000F062FD102000F079FD622000F05CFDCC
:10147000192000F073FD632000F056FD192000F0E4
:101480006DFD702000F050FD552000F067FD1D201F
:1014900000F04AFD022000F061FD892000F044FDCB
:1014A000182000F05BFD8A2000F03EFDB92000F01E
:1014B00055FD8B2000F038FD012000F04FFD8C2001
:1014C00000F032FD102000F049FD8D2000F02CFDD1
:1014D000902000F043FD8E2000F026FD012000F05A
:1014E0003DFD6E2000F020FD0A2000F037FD6A204F
:1014F00000F01AFD052000F031FD3A2000F014FD47
:10150000082000F02BFD3B2000F00EFD002000F035
:1015100025FD3D2000F008FD162000F01FFD3F20B6
:1015200000F002FD272000F019FD402000F0FCFC37
:101530000F2000F013FD412000F0F6FC0D2000F01C
:101540000DFD422000F0F0FC142000F007FD4320C8
:1015500000F0EAFC412000F001FD442000F0E4FC32
:10156000252000F0FBFC452000F0DEFC522000F0BE
:10157000F5FC462000F0D8FC362000F0EFFC4720B8
:1015800000F0D2FC632000F0E9FC482000F0CCFC25
:10159000142000F0E3FC492000F0C6FC412000F0DC
:1015A000DDFC4A2000F0C0FC252000F0D7FC4B20D9
:1015B00000F0BAFC522000F0D1FC4C2000F0B4FC4A
:1015C000362000F0CBFC4D2000F0AEFC632000F094
:1015D000C5FC4E2000F0A8FC142000F0BFFC4F20FA
:1015E00000F0A2FC412000F0B9FC502000F09CFC6F
:1015F000252000F0B3FC512000F096FC522000F0B2
:10160000ADFC522000F090FC362000F0A7FC5320E7
:1016100000F08AFC632000F0A1FC542000F084FC60
:10162000142000F09BFC552000F07EFC412000F0CF
:1016300095FC562000F078FC252000F08FFC572008
:1016400000F072FC522000F089FC582000F06CFC85
:10165000362000F083FC592000F066FC632000F087
:101660007DFC662000F060FC902000F077FC672095
:1016700000F05AFC402000F071FC722000F054FC95
:101680001A2000F06BFC732000F04EFC072000F0E5
:1016900065FC742000F048FC0C2000F05FFC6A2020
:1016A00000F042FC3D2000F059FC6B2000F03CFCB7
:1016B000292000F053FCFE2000F036FC042000F04E
:1016C0004DFC5E2000F030FC012000F047FC5F2064
:1016D00000F02AFCB82000F041FC602000F024FC5F
:1016E000BB2000F03BFC612000F01EFCBB2000F0A2
:1016F00035FC622000F018FCBB2001E0000801402E
:1017000000F02CFC762000F00FFCBB2000F026FC43
:10171000772000F009FC3B2000F020FC782000F04E
:1017200003FC922000F01AFC792000F0FDFBBB20A6
:1017300000F014FC7A2000F0F7FBBB2000F00EFC58
:10174000002000F0F1FBDC2000F008FC012000F09C
:10175000EBFB002000F002FC022000F0E5FB022081
:1017600000F0FCFB032000F0DFFB002000F0F6FBA4
:10177000042000F0D9FB082000F0F0FB052000F069
:10178000D3FB012000F0EAFB062000F0CDFB702027
:1017900000F0E4FB072000F0C7FB0A2000F0DEFBAE
:1017A000082000F0C1FB002000F0D8FB092000F069
:1017B000BBFBDC2000F0D2FB0A2000F0B5FB0020D0
:1017C00000F0CCFB0B2000F0AFFB022000F0C6FBCA
:1017D0000C2000F0A9FB002000F0C0FB0D2000F061
:1017E000A3FB082000F0BAFB0E2000F09DFB0020B8
:1017F00000F0B4FB0F2000F097FB702000F0AEFB70
:10180000102000F091FB0A2000F0A8FB112000F04E
:101810008BFB002000F0A2FB122000F085FBCC2007
:1018200000F09CFB132000F07FFB002000F096FBF3
:10183000142000F079FB022000F090FB152000F04E
:1018400073FB002000F08AFB162000F06DFB2020C7
:1018500000F084FB172000F067FB002000F07EFB07
:10186000182000F061FB282000F078FB192000F020
:101870005BFB262000F072FB1A2000F055FB0020D5
:1018800000F06CFB1B2000F04FFBCC2000F066FB4F
:101890001C2000F049FB002000F060FB1D2000F040
:1018A00043FB022000F05AFB1E2000F03DFB00200D
:1018B00000F054FB1F2000F037FB202000F04EFB0F
:1018C000202000F031FB012000F048FB212000F037
:1018D0002BFB282000F042FB222000F025FB2620D5
:1018E00000F03CFB232000F01FFB002000F036FB43
:1018F0004C2000F019FB892000F030FB4D2000F057
:1019000013FB002000F02AFB4E2000F00DFB01200D
:1019100000F024FB4F2000F007FB002000F01EFB2E
:10192000502000F001FB012000F018FB512000F0D6
:10193000FBFABB2000F012FB522000F0F5FABB20AE
:1019400000F00CFB532000F0EFFACA2000F006FB79
:10195000542000F0E9FA002000F000FB552000F0D0
:10196000E3FA032000F0FAFA562000F0DDFA002036
:1019700000F0F4FA582000F0D7FA002000F0EEFA58
:10198000592000F0D1FA002000F0E8FA652000F0BC
:10199000CBFA452000F0E2FA662000F0C5FA0C20F0
:1019A00000F0DCFA672000F0BFFA002000F0D6FA61
:1019B000FE2000F0B9FA012000F0D0FAE52000F096
:1019C000B3FA002000F0CAFAE62000F0ADFA1020C9
:1019D00000F0C4FAE72000F0A7FA312000F0BEFAC8
:1019E000FE2000F0A1FA002000F0B8FAC42000F0B8
:1019F0009BFA802000F0B2FA2A2000F095FA00202D
:101A000000F0ACFA042000F0A9FA002000F0A6FAD9
:101A10007B2000F0A3FA112000F086FA002000F0ED
:101A20009DFA9620FEF7EEFC292000F07DFABDE835
:101A30001040002000F092BA2DE9FC4190461F466C
:101A4000089A1A4B054602EB820200201A446C46A3
:101A5000135C2354401C80B20528F9D300208DF874
:101A600005008DF806008DF80700C81D83B2E81D3B
:101A700080B20A4601462846FEF709FC00260025EA
:101A8000605DC00701D0404600E0384600F08AFAA9
:101A9000605D400860556D1CADB2082DF0D3761C1A
:101AA000B6B2082EEBD3BDE8FC8100005020000840
:101AB00030B585B00024104800940194029403943A
:101AC000816941F00401816180690C4D00F00400DE
:101AD000049022461C212846FEF796FD1C2000900B
:101AE0000120CDE901040220039069462846FEF753
:101AF0009BFC05B030BD0000001002400008014012
:101B00000F4810B50D4901604FF48271416000210A
:101B10008160C1604FF400720161C0E90512C161CA
:101B20000162416281620A21C162FFF78DF80028DB
:101B300003D0BDE81040FEF7F3BB10BD00300140FC
:101B4000240000200C4810B50A4901604FF4E1312F
:101B50004160002181600C22C160C0E904128161F2
:101B6000C161FFF7D3FA002803D0BDE81040FEF7AB
:101B7000D7BB10BD003801407C000020FEE7FEE727
:101B8000704738B50B46009204460022802100F0D1
:101B900009F8002804D0606D40F020006065032043
:101BA00038BD00002DE9F8431E469146884604469C
:101BB000089DFEF72FFD401B351AFEF72BFD07464B
:101BC00025480068C0F3CB30684338E0701C37D03C
:101BD000FEF720FDC01BA84203D215B1009860B3E8
:101BE0002CE02068416821F0E00141606068B0F5B8
:101BF000827F0BD1A068B0F5004F02D0B0F5806FA6
:101C000004D12068016821F040010160A06AB0F5AC
:101C1000005F09D12068016821F40051016020684B
:101C2000016841F400510160012084F85100002056
:101C300084F850000320BDE8F8830025401E009082
:101C40002068816838EA010004D000214945BDD1EF
:101C50000020F0E70121F9E70C00002070470000A8
:101C600001B54FF0FF33012269460248FFF77EF8C5
:101C700008BD000024000020FEF7D2BC10B590B0D3
:101C800028216846FEF7A0FA14210AA8FEF79CFA5C
:101C90000220009001200490102000240590079459
:101CA0006846FEF741FE08B172B6FEE70F20CDE9A7
:101CB0000A040C940D9400210AA80E94FEF748FD26
:101CC000002801D072B6FEE710B010BD704710B505
:101CD000406A0021C185C184FFF710F910BD016879
:101CE000CA6822F49072CA6001684A6922F001024F
:101CF0004A61016B012904D10168CA6822F010020F
:101D0000CA60202180F83E1000210163704708B5A9
:101D100090F83E10222901D0022008BD82684FF4BD
:101D200080539A4201D1016921B1816A9A421BD044
:101D30004AB10AE00268816A5268C2F308020A8066
:101D4000816A891C08E0026972B10268526802F077
:101D50007F020A70816A491C8162C18D491E090493
:101D6000090CC18503D019E002685268F1E70168E7
:101D7000CA6822F02002CA600168CA6822F4807230
:101D8000CA6001684A6922F001024A61202180F894
:101D90003E10016B012903D0FFF740FA002008BD77
:101DA000002101630168CA6822F01002CA6001685C
:101DB0000A68D20602D50A6849680091818DFFF74A
:101DC0009CF8EBE770B5044600680169E26821F40D
:101DD0004051114301612169A068084361690843CA
:101DE0002168CA6841F20C639A430243CA602068C2
:101DF0004169A26921F44071114341611E49206883
:101E0000884202D1FEF74AFD01E0FEF737FD00EB04
:101E1000C00101EB0012606864218000B2FBF0F3A6
:101E2000B3FBF1F36FF018067343B2FBF0F5B2FBAE
:101E3000F0F605EB8305322303EB0515B5FBF1F551
:101E4000B6FBF1F605F0F00505EB0615B2FBF0F672
:101E5000B2FBF0F0B0FBF1F06FF01802504306EB6C
:101E6000800003EB0010B0FBF1F0216800F00F00E0
:101E70002844886070BD000000380140816282857E
:101E8000C28500210164222280F83E2080F83C10A7
:101E90000168CA6842F48072CA6001684A6942F007
:101EA00001024A610068C16841F02001C160002060
:101EB00070472DE9F041984617460E460446069DA8
:101EC0001DE0681C1BD02DB1FEF7A4FBA0EB0800A1
:101ED000A84214D92068C16821F4D071C16020687B
:101EE000416921F001014161202084F83D0084F81E
:101EF0003E00002084F83C000320BDE8F08120680B
:101F0000006836EA000004D00020B842D9D0002092
:101F1000F3E70120F9E700000148FEF7F1BF0000F8
:101F20007C000020FEE7000070B50B4D0446002247
:101F300010212846FEF768FB002208212846FEF7FC
:101F400063FBE0B2FFF78CFE2846BDE8704001223B
:101F50001021FEF759BB00000008014070B50B4D81
:101F60000446002210212846FEF74EFB01220821DC
:101F70002846FEF749FBE0B2FFF772FE2846BDE8AF
:101F8000704001221021FEF73FBB00000008014015
:101F900010B50C46FFF764FE2046BDE81040FFF781
:101FA0005FBE000070B50B4D04460022102128468C
:101FB000FEF72AFB012208212846FEF725FB210A0D
:101FC000E0B2FFF7E5FF2846BDE87040012210218E
:101FD000FEF71ABB000801400907090E002804DBC0
:101FE00000F1E02080F80014704700F00F0000F1CD
:101FF000E02080F8141D704708B5FEF719FBFFF7C5
:102000003DFEFFF755FDFFF77BFDFFF79BFDFFF75B
:1020100075F901220C490D48FFF7EAF84FF6FF74F5
:1020200022463C211E20FEF75BF900223C211E20A7
:10203000FEF756F90320202100900023224608468F
:10204000FFF7FAFCFEE70000100000207C000020F3
:10205000000000000000004F00000007000700140F
:102060007F147F14242A7F2A1223130864623649BE
:102070005522500005030000001C224100004122AF
:102080001C0014083E081408083E080800503000E0
:10209000000808080808006060000020100804021A
:1020A0003E5149453E00427F400042615149462130
:1020B00041454B311814127F1027454545393C4A9C
:1020C00049493001710905033649494936064949EC
:1020D000291E003636000000563600000814224142
:1020E00000141414141400412214080201510906AA
:1020F000324979413E7E1111117E7F494949363E70
:10210000414141227F4141221C7F494949417F0988
:102110000909013E4149497A7F0808087F00417F4B
:1021200041002040413F017F081422417F40404050
:10213000407F020C027F7F0408107F3E4141413EF8
:102140007F090909063E4151215E7F09192946464A
:102150004949493101017F01013F4040403F1F2073
:1021600040201F3F4038403F631408146307087045
:1021700008076151494543007F41410002040810AE
:10218000200041417F0004020102044040404040E1
:10219000000102040020545454787F4844443838E5
:1021A00044444420384444487F3854545418087EEA
:1021B0000901020C5252523E7F0804047800447D0B
:1021C00040002040443D007F1028440000417F40F3
:1021D000007C041804787C080404783844444438AB
:1021E0007C14141408081414187C7C08040408488F
:1021F00054545420043F4440203C4040207C1C2048
:1022000040201C3C4030403C44281028440C505096
:10221000503C4464544C44000836410000007F00A8
:10222000000041360800080408100808082A1C08A5
:10223000081C2A080804027F020410207F201015C1
:10224000167C1615033B44444403037C14144428B1
:1022500010284408082A0808384448302CF85454F8
:10226000542828545444203E4909090638444C5403
:1022700024403F08081F1F08083F403C4A4A4A3C88
:102280005864046458443C047C44302810281830B6
:1022900028242830081C08080E0000000000000058
:1022A0000001020304060708090000000001020300
:1022B00004000000D42200080000002010000000EC
:1022C00028010008E4220008100000201007000088
:1022D00044010008010000001000000000000000A0
:0422E0000024F400E2
:04000005080000ED02
:00000001FF
