:020000040800F2
:100000001807002089010008E71A00088F1200086D
:10001000E51A0008E1020008291E0008000000009F
:10002000000000000000000000000000C51B0008E8
:10003000E302000800000000E91A0008E11B0008C4
:10004000A3010008A3010008A3010008A301000800
:10005000A3010008A3010008A3010008A3010008F0
:10006000A3010008A3010008A3010008A3010008E0
:10007000A3010008A3010008A3010008A3010008D0
:10008000A3010008A3010008A3010008A3010008C0
:10009000A3010008A3010008A3010008A3010008B0
:1000A000A3010008A3010008A3010008A3010008A0
:1000B000A3010008A3010008A3010008A301000890
:1000C000A3010008A3010008A3010008A301000880
:1000D000A30100081D1E0008A3010008A3010008D9
:1000E000A3010008A3010008A301000800F002F822
:1000F00000F03AF80AA090E8000C82448344AAF188
:100100000107DA4501D100F02FF8AFF2090EBAE885
:100110000F0013F0010F18BFFB1A43F0010318473B
:100120000C1E00002C1E0000103A24BF78C878C1B5
:10013000FAD8520724BF30C830C144BF04680C60ED
:10014000704700000023002400250026103A28BF35
:1001500078C1FBD8520728BF30C148BF0B60704739
:100160001FB51FBD10B510BD00F058F81146FFF7C0
:10017000F7FF01F0B9FE00F076F803B4FFF7F2FFE5
:1001800003BC00F07DF8000009488047094800479B
:10019000FEE7FEE7FEE7FEE7FEE7FEE7FEE7FEE737
:1001A000FEE7FEE704480549054A064B7047000094
:1001B000351C0008ED000008180100201807002079
:1001C00018030020180300204FF0000200B513466A
:1001D00094469646203922BFA0E80C50A0E80C5067
:1001E000B1F12001BFF4F7AF090728BFA0E80C5018
:1001F00048BF0CC05DF804EB890028BF40F8042B11
:1002000008BF704748BF20F8022B11F0804F18BF7D
:1002100000F8012B7047704770477047754600F033
:100220002BF8AE4605006946534620F00700854688
:1002300018B020B5FFF7B6FFBDE820404FF000062C
:100240004FF000074FF000084FF0000B21F00701BE
:10025000AC46ACE8C009ACE8C009ACE8C009ACE801
:10026000C0098D46704710B50446AFF300802046A4
:10027000BDE81040FFF781BF00487047B400002080
:1002800001491820ABBEFEE72600020070472DE9A9
:10029000F04107461C4615460E462A2001F0C6FDD1
:1002A000380A01F0DDFDF8B201F0DAFD300A01F0A4
:1002B000D7FDF0B201F0D4FD2B2001F0B7FD280AE4
:1002C00001F0CEFDE8B201F0CBFD200A01F0C8FD3F
:1002D000E0B201F0C5FDBDE8F0412C2001F0A6BD63
:1002E000FEE770472DE9F0410024214E07468025A6
:1002F0004FF6FF78F05D04F0070125FA01F108429E
:1003000007D0404601F0C6FD404601F0C3FD40461F
:1003100006E0002001F0BEFD002001F0BBFD002042
:1003200001F0B8FD641CE4B2082CE3D33E44002481
:100330004746707804F0070125FA01F1084207D01A
:10034000384601F0A7FD384601F0A4FD384606E026
:10035000002001F09FFD002001F09CFD002001F035
:1003600099FD641CE4B2082CE3D3BDE8F0810000E1
:100370000000002072B6FEE710B590F821100022B0
:10038000022905D00421816380F82020012010BDBE
:1003900001680B6823F00E030B6001680B6823F003
:1003A00001030B6090F84030C46B012101FA03F3A4
:1003B000636080F8211080F82020104610BD0000F6
:1003C00010B590F821100024022903D00421816384
:1003D00001243DE001680A6822F00E020A6001680B
:1003E0000A6822F001020A601A4A0168914201D1AA
:1003F000012121E0174A1432914201D110211BE062
:10040000144A2832914201D1891515E0114A3C3233
:10041000914201D189140FE00E4A5032914202D12B
:100420004FF4803108E00B4A6432914202D14FF41C
:10043000801101E04FF08071064A083A51600121B5
:1004400080F82110002180F82010416B01B188470D
:10045000204610BD0800024070B5044600F004F9C3
:100460000546601C02D004480078044400F0FCF803
:10047000401BA042FAD370BD080000202DE9F84FC0
:10048000DFF8B891002409F1040A0AF1040B2346AD
:100490000F270BF1040EC9E00125A5402A40AA420E
:1004A0007DD1674ED1F804C0ACEB0608B44532D01C
:1004B00014DCBCF1030F3AD009DCBCF1000F2AD0E8
:1004C000BCF1010F1CD0BCF1020F31D11DE0BCF119
:1004D000110F17D0BCF1120F2AD119E0B8F5881FFF
:1004E00019D006DCB8F5803F15D0B8F5801F1FD1B4
:1004F00011E0B8F5001F0ED0B8F5041F18D10AE0BE
:10050000CB6815E0CB681B1D12E0CB6808330FE009
:10051000CB680C330CE08B682BB1012B4FF0080338
:1005200003D0456104E0042302E0056100E00023FC
:10053000FF2A01D8064601E000F104064FEA8405CF
:1005400001D9A5F12005D6F8008007FA05FC28EAB4
:100550000C0803FA05F548EA0508C6F800804D685E
:10056000ED0062D5374DAE6946F00106AE61AD696A
:1005700024F0030605F001050095334D06EB050C4C
:10058000DCF80850A607360F07FA06F825EA080532
:10059000DFF8B880404503D14FF0000817E044E091
:1005A000DFF8AC80404502D14FF001080FE0DFF8E2
:1005B000A480404502D14FF0020808E0DFF898809F
:1005C000404502D14FF0030801E04FF0040808FA5B
:1005D00006F848EA0508CCF808804D68D9F80060AC
:1005E000ED034D4601D5164300E096432E604D685D
:1005F000DAF80060AD03554601D5164300E0964396
:100600002E604D68DBF80060ED025D4601D51643B3
:1006100000E096432E604D68DEF80060AD0275463E
:1006200001D5164300E096432E60641C0D682A46EF
:10063000E5407FF431AFBDE8F88F000000040140D1
:1006400000001110001002400000014000080140AD
:10065000000C014000100140001401400AB101618A
:1006600070470904FBE700000148806870470000FC
:1006700008000020024881680278114481607047B8
:1006800008000020074810B5016841F01001016022
:10069000032000F075F80F2000F006F800F024F8B1
:1006A000002010BD0020024070B50D4D04464FF4EF
:1006B0007A712878B1FBF0F00A490968B1FBF0F0D3
:1006C00000F031FC48B9102C07D200222146501E00
:1006D00000F036F800206C6070BD012070BD000095
:1006E00008000020140000200C4808B5816941F082
:1006F00001018161816901F001010091C16941F04D
:100700008051C161C06900F0805000900448416888
:1007100021F0E06141F00071416008BD001002402D
:1007200000000140002809DB00F01F020121914078
:100730004009800000F1E020C0F80011704700007F
:10074000F0B40E4B1B680C46C3F30223C3F107053C
:10075000042D00D90425191D072901D2002300E02A
:10076000DB1E012606FA05F1491E214099409E40F4
:10077000761E16403143F0BC01F0A6BB0CED00E044
:10078000064900F0070208684FF6FF03184040EAE8
:100790000220034A10430860704700000CED00E09F
:1007A0000000FA052DE9F0470F46050061D0434EE1
:1007B000306800F00700B84209D2306820F0070026
:1007C00038433060306800F00700B84251D12868E3
:1007D0003B4C810712D5400703D5606840F4E060C8
:1007E00060602878000703D5606840F4605060605E
:1007F0006068A96820F0F000084360602878C007AE
:1008000028D06868012810D02168022810D08907F4
:1008100000292EDA616821F0030101436160FFF7CE
:1008200023FF804641F288390DE021688903EFE714
:100830008901EDE7FFF718FFA0EB0801494502D950
:100840000320BDE8F0876068696800F00C00B0EB39
:10085000810FEFD1306800F00700B8420BD9306843
:1008600020F0070038433060306800F00700B842DD
:1008700001D00120E5E72878400705D56068E968E0
:1008800020F4E060084360602878000706D56068BF
:10089000296920F4605040EAC100606000F038F837
:1008A0006168084AC1F30311515CC84006490860F9
:1008B00006480068FFF7F8FE0020C2E7002002406B
:1008C00000100240141F0008140000200C0000203B
:1008D0000448054900684968044AC1F30221515C93
:1008E000C84070471400002000100240241F000878
:1008F0000448054900684968044AC1F3C221515CB3
:10090000C84070471400002000100240241F000857
:1009100012A185B00FC98DE80F0014A0144A006819
:1009200004905168134801F00C03042B10D0082BDD
:100930000ED1C1F38343C9031DF803000AD55168E2
:1009400004AAC1F34041515C0A4A5043B0FBF1F0A4
:1009500005B0704708494843FAE700000203040560
:10096000060708090A0B0C0D0E0F101001020000FB
:100970000010024000127A0000093D002DE9F84FF6
:10098000040070D02078C04DC00749D06868C0F31B
:100990008100012807D06868C0F38100022809D1CE
:1009A0006868C00306D52868800339D560680028C8
:1009B000E7D035E06068B0F5803F0BD010B1B0F5FE
:1009C000A02F11D0286820F480302860286820F4F7
:1009D000802002E0286840F480302860606890B190
:1009E000FFF742FE06460AE0286840F480202860AF
:1009F000F0E700BFFFF738FE801B642873D8286833
:100A00008003F7D50CE0FFF72FFE064605E000BF98
:100A1000FFF72AFE801B6428F0D828688003F7D4EB
:100A200020789A4E80074FF001094FF0000839D521
:100A3000686810F00C0F07D06868C0F381000228C6
:100A400009D16868C00306D42868800714D52069D6
:100A5000012808D110E02069B0B1C6F80090FFF776
:100A600003FE074605E00AE1FFF7FEFDC01B022872
:100A7000C4D828688007F7D52868616920F0F80095
:100A800040EAC10028600DE0C6F80080FFF7ECFDE9
:100A9000074604E0FFF7E8FDC01B022823D82868BA
:100AA0008007F7D4207800072CD57948A169D9B1FF
:100AB000C0F80090FFF7D8FD074604E0FFF7D4FD2B
:100AC000C01B02280FD8686A8007F7D571484FF419
:100AD000FA510068B0FBF1F0009000BF0098411E91
:100AE0000091FAD20EE080E0C0F80080FFF7BCFD74
:100AF000074604E0FFF7B8FDC01B022875D8686AF6
:100B00008007F7D42078400760D5E8690027C00047
:100B100008D4E86940F08050E861E869012700F0F6
:100B2000805000905C480168C90513D40168834671
:100B300041F480710160FFF797FD824606E000BF37
:100B4000FFF792FDA0EB0A0064284ED8DBF8000006
:100B5000C005F5D5E06801280AD008B1052813D0F2
:100B6000286A20F001002862286A20F0040002E0D0
:100B7000286A40F001002862E06841F2883B98B1A1
:100B8000FFF772FD82460BE0286A40F004002862FD
:100B9000EEE700BFFFF768FDA0EB0A0159455AD800
:100BA000286A8007F6D50CE0FFF75EFD824605E077
:100BB000FFF75AFDA0EB0A0159454CD8286A800777
:100BC000F6D41FB1E86920F08050E861E06988B38D
:100BD0006968C1F38101022944D00228C6F8608007
:100BE00004D0FFF741FD044638E034E0FFF73CFD58
:100BF000074604E0FFF738FDC01B02282BD8286801
:100C00008001F7D4206AB0F5803F05D16868A168FB
:100C100020F4003008436860D4E90801084369689B
:100C200021F4741108436860C6F86090FFF71CFD5A
:100C3000044606E025E000BFFFF716FD001B022872
:100C400009D828688001F7D51BE000BFFFF70CFD2D
:100C5000001B022802D90320BDE8F88F2868800114
:100C6000F4D40EE00128F7D06868226A00F48031DD
:100C7000914204D1616A00F47010884201D00120D1
:100C8000EAE70020E8E700000010024000004242CE
:100C900080044242140000200070004070B504003F
:100CA00009D0606A002540B125616561A56294F8AC
:100CB000510040B10CE0012070BD6068B0F5827F4A
:100CC000F4D0E561F2E784F85050204600F040F897
:100CD000022084F851002068016821F04001016081
:100CE000A088218900F4827001F404410843A1899D
:100CF00001F400610843217C01F002010843217DD9
:100D000001F001010843218B01F400710843217FA8
:100D100001F03801084394F8201001F080010843E5
:100D2000218D01F40051084321680860A069042165
:100D300001EA1040216848602068C16921F400611F
:100D4000C1616565012084F85100002070BD00007C
:100D500030B585B000240094019402940394006897
:100D60001449884223D11448816941F4805181613A
:100D7000816901F480510491816941F0040181612C
:100D800080690E4D00F004000490A0200090022025
:100D900001900320039069462846FFF76FFB40202F
:100DA000CDE90004694628460294FFF767FB05B0C9
:100DB00030BD00000030014000100240000801403A
:100DC0002DE9F84F044690F8500000271D461646BE
:100DD000894601280DD04FF0010B84F850B0FFF781
:100DE00043FC804694F85100BA46012804D00227FB
:100DF00093E00220BDE8F88FB9F1000F73D0002E08
:100E000071D0032084F85100C4F854A0C4F8309085
:100E1000A686E686C4F838A0A4F83CA0A4F83EA0B4
:100E2000C4F844A0C4F840A0A068B0F5004F09D1B0
:100E30002068016821F0400101602068016841F4E8
:100E40008041016020680168490603D4016841F0CF
:100E500040010160E068B0F5006F606803D030B316
:100E6000012E24D041E008B1012E1CD1206B216855
:100E70000088C86006E020688168890709D5216B71
:100E80000988C160206B801C2063E08E401EE086D4
:100E900009E0FFF7E9FBA0EB0800A84202D3681CB9
:100EA00001D031E07DB3E08E0028E4D120E0206B5A
:100EB00021680078087306E020688168890709D5F1
:100EC000216B09780173206B401C2063E08E401E6B
:100ED000E0860AE0FFF7C8FBA0EB0800A84203D3B6
:100EE000681C02D010E017E06DB1E08E0028E3D15D
:100EF00042462946204600F0F8FD08B120206065F2
:100F0000A06818B106E0FFE7032706E02068C16883
:100F100080680090606D00B1012784F851B084F8BA
:100F200050A0384666E710B5401EB0F1807F01D36F
:100F3000012010BD4FF0E02460610F21601700F028
:100F4000C3FF0020A06107202061002010BD704772
:100F500070470000F8B5026804461068D16853690C
:100F600010F00F0F4FF0000553D003F0010601F40D
:100F7000907737435FD0C20705D0CA0503D5226CEE
:100F800042F001022264420705D5DA0703D0226C41
:100F900042F002022264820705D5DA0703D0226CF0
:100FA00042F004022264020707D501F02002324316
:100FB00003D0226C42F008022264226C002A34D052
:100FC000800604D5880602D5204600F054FE20682D
:100FD0004069216CC0F38010090700D430B320466B
:100FE00000F031FE2068416949061BD5416921F0B6
:100FF00040014161A06BA8B158494163A06BFFF764
:10100000DFF9002811D0A06B416B01B0BDE8F040C2
:10101000084783060FD58B060DD52046BDE8F8405E
:1010200000F029BE2046FFF793FFF8BD2046FFF7EA
:101030008FFF2564F8BD266B2023012E52D1C606F2
:1010400050D5CE064ED510685068009050694006C5
:101050002AD5A16B086840680004000CEAD0A68D70
:101060008642E7D9E0858869202818D0D06820F426
:101070008070D0602068416921F0010141612068E1
:10108000416921F04001416184F83E3025632068C8
:10109000C16821F01001C160A06BFFF76DF9A08D50
:1010A000E18D401A81B219E0A08DE18D401A81B224
:1010B000E08D0028BED00029BCD0D06820F490700C
:1010C000D0602068426922F00102426184F83E301B
:1010D00025632068C26822F01002C2602046FFF734
:1010E00036FFF8BD05062BD50D0629D594F83D0031
:1010F0002128F6D1A068B0F5805F01D12069B0B198
:10110000206A411C2162216800784860E08C401E02
:101110000004000CE084E4D12068C16821F0800163
:10112000C1602068C16841F04001C160F8BD206A1B
:101130000088C0F308005060206A801C2062E5E748
:101140004006F3D54806F1D5D168204621F040018C
:10115000D16084F83D3000F099F8F8BD371C0008E4
:1011600070B5040004D094F83D00002510B106E0ED
:10117000012070BD84F83C50204600F023F8242064
:1011800084F83D002068C16821F40051C160204608
:1011900000F0CCFD2068016921F4904101612068D4
:1011A000416921F02A0141612068C16841F4005180
:1011B000C1602564202084F83D0084F83E000020B2
:1011C00070BD000030B585B00024009401940294F5
:1011D00003940068184988422CD11848816941F469
:1011E00080418161816901F480410491816941F00C
:1011F000040181618069124D00F0040004904FF4F5
:101200000070009002200190032003906946284658
:10121000FFF734F92815CDE9000469462846029401
:10122000FFF72CF9002211462520FFF789FA252027
:10123000FFF778FA05B030BD0038014000100240D9
:101240000008014090F83E30202B0ED159B152B128
:1012500090F83C30012B08D0012380F83C3000236B
:10126000036300F0BFBD01207047022070470000FB
:1012700010B5082203490448FFF7E4FFBDE8104019
:1012800000F0A4BB00000020700000207047FEE7C3
:1012900010B501220421FE48FFF7E0F91E20FFF7F8
:1012A000DBF8FE2000F0C2FD012000F0D9FD042093
:1012B00000F0BCFDA02000F0D3FD052000F0B6FD3D
:1012C000702000F0CDFD062000F0B0FD3C2000F0C5
:1012D000C7FD252000F0AAFD062000F0C1FD262054
:1012E00000F0A4FD802000F0BBFD272000F09EFD53
:1012F000122000F0B5FD282000F098FD122000F02B
:10130000AFFD2A2000F092FD062000F0A9FD2B2061
:1013100000F08CFD802000F0A3FD2D2000F086FD64
:10132000122000F09DFD2F2000F080FD122000F023
:1013300097FD372000F07AFD0C2000F091FD6D2024
:1013400000F074FD182000F08BFD292000F06EFDE8
:10135000012000F085FD302000F068FD432000F002
:101360007FFD0E2000F062FD832000F079FD0F204C
:1013700000F05CFD832000F073FD102000F056FDAE
:10138000712000F06DFD112000F050FDB32000F041
:1013900067FD122000F04AFDB32000F061FD13202C
:1013A00000F044FD802000F05BFD142000F03EFDC5
:1013B000802000F055FD152000F038FD812000F060
:1013C0004FFD162000F032FD812000F049FD18206D
:1013D00000F02CFD662000F043FD192000F026FDF2
:1013E000442000F03DFD1E2000F020FD022000F012
:1013F00037FD5B2000F01AFD102000F031FD622067
:1014000000F014FD192000F02BFD632000F00EFD0C
:10141000192000F025FD702000F008FD552000F097
:101420001FFD1D2000F002FD022000F019FD8920A3
:1014300000F0FCFC182000F013FD8A2000F0F6FC00
:10144000B92000F00DFD8B2000F0F0FC012000F031
:1014500007FD8C2000F0EAFC102000F001FD8D203B
:1014600000F0E4FC902000F0FBFC8E2000F0DEFC9D
:10147000012000F0F5FC6E2000F0D8FC0A2000F0FE
:10148000EFFC6A2000F0D2FC052000F0E9FC3A20D5
:1014900000F0CCFC082000F0E3FC3B2000F0C6FC90
:1014A000002000F0DDFC3D2000F0C0FC162000F024
:1014B000D7FC3F2000F0BAFC272000F0D1FC4020F0
:1014C00000F0B4FC0F2000F0CBFC412000F0AEFC9B
:1014D0000D2000F0C5FC422000F0A8FC142000F014
:1014E000BFFC432000F0A2FC412000F0B9FC4420E6
:1014F00000F09CFC252000F0B3FC452000F096FC99
:10150000522000F0ADFC462000F090FC362000F0A8
:10151000A7FC472000F08AFC632000F0A1FC4820D3
:1015200000F084FC142000F09BFC492000F07EFCBD
:10153000412000F095FC4A2000F078FC252000F0C6
:101540008FFC4B2000F072FC522000F089FC4C20F4
:1015500000F06CFC362000F083FC4D2000F066FCAF
:10156000632000F07DFC4E2000F060FC142000F0B1
:1015700077FC4F2000F05AFC412000F071FC502015
:1015800000F054FC252000F06BFC512000F04EFCD4
:10159000522000F065FC522000F048FC362000F09C
:1015A0005FFC532000F042FC632000F059FC542003
:1015B00000F03CFC142000F053FC552000F036FCF9
:1015C000412000F04DFC562000F030FC252000F0BA
:1015D00047FC572000F02AFC522000F041FC582024
:1015E00000F024FC362000F03BFC592000F01EFCEB
:1015F000632000F035FC662000F018FC902000F01D
:101600002FFC672000F012FC402000F029FC722023
:1016100000F00CFC1A2000F023FC732000F006FC04
:10162000072000F01DFC742000F000FC0C2000F0EE
:1016300017FC6A2000F0FAFB3D2000F011FC6B2043
:1016400000F0F4FB292000F00BFCFE2000F0EEFB84
:10165000042000F005FC5E2000F0E8FB012000F013
:10166000FFFB5F2000F0E2FBB82000F0F9FB6020F8
:1016700000F0DCFBBB2000F0F3FB612000F0D6FBA8
:10168000BB2000F0EDFB622000F0D0FBBB2001E0AE
:101690000008014000F0E4FB762000F0C7FBBB200F
:1016A00000F0DEFB772000F0C1FB3B2000F0D8FB10
:1016B000782000F0BBFB922000F0D2FB792000F0F4
:1016C000B5FBBB2000F0CCFB7A2000F0AFFBBB20C9
:1016D00000F0C6FB002000F0A9FBDC2000F0C0FBFE
:1016E000012000F0A3FB002000F0BAFB022000F074
:1016F0009DFB022000F0B4FB032000F097FB0020CC
:1017000000F0AEFB042000F091FB082000F0A8FBE5
:10171000052000F08BFB012000F0A2FB062000F06A
:1017200085FB702000F09CFB072000F07FFB0A2067
:1017300000F096FB082000F079FB002000F090FB01
:10174000092000F073FBDC2000F08AFB0A2000F087
:101750006DFB002000F084FB0B2000F067FB0220F3
:1017600000F07EFB0C2000F061FB002000F078FB15
:101770000D2000F05BFB082000F072FB0E2000F053
:1017800055FB002000F06CFB0F2000F04FFB702099
:1017900000F066FB102000F049FB0A2000F060FB1F
:1017A000112000F043FB002000F05AFB122000F053
:1017B0003DFBCC2000F054FB132000F037FB002051
:1017C00000F04EFB142000F031FB022000F048FB3B
:1017D000152000F02BFB002000F042FB162000F04B
:1017E00025FB202000F03CFB172000F01FFB002011
:1017F00000F036FB182000F019FB282000F030FB29
:10180000192000F013FB262000F02AFB1A2000F01C
:101810000DFB002000F024FB1B2000F007FBCC2078
:1018200000F01EFB1C2000F001FB002000F018FB64
:101830001D2000F0FBFA022000F012FB1E2000F039
:10184000F5FA002000F00CFB1F2000F0EFFA20203A
:1018500000F006FB202000F0E9FA012000F000FB78
:10186000212000F0E3FA282000F0FAFA222000F00C
:10187000DDFA262000F0F4FA232000F0D7FA002049
:1018800000F0EEFA4C2000F0D1FA892000F0E8FADE
:101890004D2000F0CBFA002000F0E2FA4E2000F0DC
:1018A000C5FA012000F0DCFA4F2000F0BFFA00205A
:1018B00000F0D6FA502000F0B9FA012000F0D0FA7A
:1018C000512000F0B3FABB2000F0CAFA522000F019
:1018D000ADFABB2000F0C4FA532000F0A7FACA20EA
:1018E00000F0BEFA542000F0A1FA002000F0B8FA8F
:1018F000552000F09BFA032000F0B2FA562000F0C9
:1019000095FA002000F0ACFA582000F08FFA002081
:1019100000F0A6FA592000F089FA002000F0A0FAA1
:10192000652000F083FA452000F09AFA662000F066
:101930007DFA0C2000F094FA672000F077FA00207E
:1019400000F08EFAFE2000F071FA012000F088FA13
:10195000E52000F06BFA002000F082FAE62000F0AB
:1019600065FA102000F07CFAE72000F05FFA3120E1
:1019700000F076FAFE2000F059FA002000F070FA2C
:10198000C42000F053FA802000F06AFA2A2000F008
:101990004DFA002000F064FA042000F061FA002003
:1019A00000F05EFA7B2000F05BFA112000F03EFAB6
:1019B000002000F055FA9620FEF74EFD292000F099
:1019C00035FABDE81040002000F04ABA70B5114D5C
:1019D000EC79A87904F10A03C11D2246FEF757FCF1
:1019E0000020FEF77FFCEB79A879A21CC11D0A3309
:1019F000FEF74DFC0220FEF775FCEB79A879221D5D
:101A0000C11D0A33FEF743FCBDE870400420FEF719
:101A100069BC00000000002030B585B000241048EB
:101A20000094019402940394816941F0040181615E
:101A300080690C4D00F00400049022461C212846C9
:101A4000FEF70CFE1C2000900120CDE901040220CD
:101A5000039069462846FEF711FD05B030BD000031
:101A600000100240000801400F4810B50D49016008
:101A70004FF48271416000218160C1604FF40072B7
:101A80000161C0E90512C1610162416281620A21FE
:101A9000C162FFF703F9002803D0BDE81040FEF74C
:101AA00069BC10BD00300140180000200C4810B582
:101AB0000A4901604FF4E1314160002181600C224C
:101AC000C160C0E904128161C161FFF749FB0028D0
:101AD00003D0BDE81040FEF74DBC10BD00380140FA
:101AE00070000020FEE7FEE7704738B50B46009215
:101AF00004460022802100F009F8002804D0606D1F
:101B000040F020006065032038BD00002DE9F84357
:101B10001E46914688460446089DFEF7A5FD401BDB
:101B2000351AFEF7A1FD074625480068C0F3CB3003
:101B3000684338E0701C37D0FEF796FDC01BA84202
:101B400003D215B1009860B32CE02068416821F001
:101B5000E00141606068B0F5827F0BD1A068B0F50C
:101B6000004F02D0B0F5806F04D12068016821F0E9
:101B700040010160A06AB0F5005F09D120680168EA
:101B800021F4005101602068016841F400510160B6
:101B9000012084F85100002084F850000320BDE8A3
:101BA000F8830025401E00902068816838EA010013
:101BB00004D000214945BDD10020F0E70121F9E71B
:101BC000140000207047000001B54FF0FF330122E0
:101BD00069460248FFF7F4F808BD0000180000202D
:101BE000FEF748BD10B590B028216846FEF7ECFA24
:101BF00014210AA8FEF7E8FA0220009001200490C0
:101C000010200024059007946846FEF7B7FE08B13F
:101C100072B6FEE70F20CDE90A040C940D94002162
:101C20000AA80E94FEF7BEFD002801D072B6FEE7AA
:101C300010B010BD704710B5406A0021C185C18445
:101C4000FFF786F910BD0168CA6822F49072CA6075
:101C500001684A6922F001024A61016B012904D13D
:101C60000168CA6822F01002CA60202180F83E1084
:101C700000210163704708B590F83E10222901D079
:101C8000022008BD82684FF480539A4201D1016955
:101C900021B1816A9A421BD04AB10AE00268816A86
:101CA0005268C2F308020A80816A891C08E002694E
:101CB00072B10268526802F07F020A70816A491CA0
:101CC0008162C18D491E0904090CC18503D019E048
:101CD00002685268F1E70168CA6822F02002CA600F
:101CE0000168CA6822F48072CA6001684A6922F0F9
:101CF00001024A61202180F83E10016B012903D0C6
:101D0000FFF7B6FA002008BD002101630168CA6828
:101D100022F01002CA6001680A68D20602D50A6879
:101D200049680091818DFFF712F9EBE770B5044621
:101D300000680169E26821F44051114301612169A1
:101D4000A0680843616908432168CA6841F20C63CE
:101D50009A430243CA6020684169A26921F4407134
:101D6000114341611E492068884202D1FEF7C0FD3F
:101D700001E0FEF7ADFD00EBC00101EB0012606871
:101D800064218000B2FBF0F3B3FBF1F36FF01806AF
:101D90007343B2FBF0F5B2FBF0F605EB830532239B
:101DA00003EB0515B5FBF1F5B6FBF1F605F0F00513
:101DB00005EB0615B2FBF0F6B2FBF0F0B0FBF1F06C
:101DC0006FF01802504306EB800003EB0010B0FBED
:101DD000F1F0216800F00F002844886070BD000019
:101DE0000038014081628285C2850021016422227F
:101DF00080F83E2080F83C100168CA6842F4807286
:101E0000CA6001684A6942F001024A610068C1681B
:101E100041F02001C1600020704700000148FFF739
:101E200099B8000070000020FEE7000070B50B4D6F
:101E30000446002210212846FEF710FC002208214B
:101E40002846FEF70BFCE0B2FFF7BEFE2846BDE8D1
:101E5000704001221021FEF701BC00000008014083
:101E600070B50B4D0446002210212846FEF7F6FB04
:101E7000012208212846FEF7F1FBE0B2FFF7A4FE9D
:101E80002846BDE8704001221021FEF7E7BB0000A4
:101E90000008014070B50B4D044600221021284671
:101EA000FEF7DCFB012208212846FEF7D7FBE0B253
:101EB000FFF78AFE2846BDE8704001221021FEF798
:101EC000CDBB0000000801400907090E002804DB13
:101ED00000F1E02080F80014704700F00F0000F1DE
:101EE000E02080F8141D7047FEF7CCFBFFF77AFE68
:101EF000FFF792FDFFF7B8FDFFF7D8FDFFF7C8F930
:101F0000082202490248FFF79DF9FEE70000002081
:101F10007000002000000000000000000102030427
:101F20000607080900000000010203044C1F000816
:101F3000000000201800000028010008641F0008AD
:101F40001800002000070000440100080000000005
:101F50000000000001000000100000000000000070
:041F60000024F40065
:04000005080000ED02
:00000001FF
