:020000040800F2
:100000005007002089010008831A00083B120008ED
:10001000811A00081D030008C51D0008000000002B
:10002000000000000000000000000000611B00084C
:100030001F03000800000000851A00087D1B00084F
:10004000A3010008A3010008A3010008A301000800
:10005000A3010008A3010008A3010008A3010008F0
:10006000A3010008A3010008A3010008A3010008E0
:10007000A3010008A3010008A3010008A3010008D0
:10008000A3010008A3010008A3010008A3010008C0
:10009000A3010008A3010008A3010008A3010008B0
:1000A000A3010008A3010008A3010008A3010008A0
:1000B000A3010008A3010008A3010008A301000890
:1000C000A3010008A3010008A3010008A301000880
:1000D000A3010008B91D0008A3010008A30100083E
:1000E000A3010008A3010008A301000800F002F822
:1000F00000F03AF80AA090E8000C82448344AAF188
:100100000107DA4501D100F02FF8AFF2090EBAE885
:100110000F0013F0010F18BFFB1A43F0010318473B
:10012000C01D0000E01D0000103A24BF78C878C14F
:10013000FAD8520724BF30C830C144BF04680C60ED
:10014000704700000023002400250026103A28BF35
:1001500078C1FBD8520728BF30C148BF0B60704739
:100160001FB51FBD10B510BD00F058F81146FFF7C0
:10017000F7FF01F087FE00F076F803B4FFF7F2FF17
:1001800003BC00F07DF8000009488047094800479B
:10019000FEE7FEE7FEE7FEE7FEE7FEE7FEE7FEE737
:1001A000FEE7FEE704480549054A064B7047000094
:1001B000D11B0008ED00000850010020500700206E
:1001C00050030020500300204FF0000200B51346FA
:1001D00094469646203922BFA0E80C50A0E80C5067
:1001E000B1F12001BFF4F7AF090728BFA0E80C5018
:1001F00048BF0CC05DF804EB890028BF40F8042B11
:1002000008BF704748BF20F8022B11F0804F18BF7D
:1002100000F8012B7047704770477047754600F033
:100220002BF8AE4605006946534620F00700854688
:1002300018B020B5FFF7B6FFBDE820404FF000062C
:100240004FF000074FF000084FF0000B21F00701BE
:10025000AC46ACE8C009ACE8C009ACE8C009ACE801
:10026000C0098D46704710B50446AFF300802046A4
:10027000BDE81040FFF781BF00487047F000002044
:1002800001491820ABBEFEE72600020070472DE9A9
:10029000F04107461C4615460E462A2001F094FD03
:1002A000380A01F0ABFDF8B201F0A8FD300A01F008
:1002B000A5FDF0B201F0A2FD2B2001F085FD280A7A
:1002C00001F09CFDE8B201F099FD200A01F096FDD5
:1002D000E0B201F093FDBDE8F0412C2001F074BDC7
:1002E0002DE9F0410746481E83B290460E46781E1F
:1002F00081B200221046FFF7CAFF00250AE0002461
:1003000004E0404601F094FD641CA4B2B442F8D36A
:100310006D1CADB2BD42F2D3BDE8F081FEE770477F
:1003200072B6FEE710B590F821100022022905D020
:100330000421816380F82020012010BD01680B6832
:1003400023F00E030B6001680B6823F001030B60C0
:1003500090F84030C46B012101FA03F3636080F828
:10036000211080F82020104610BD000010B590F834
:1003700021100024022903D00421816301243DE0DF
:1003800001680A6822F00E020A6001680A6822F019
:1003900001020A601A4A0168914201D1012121E05B
:1003A000174A1432914201D110211BE0144A28321D
:1003B000914201D1891515E0114A3C32914201D197
:1003C00089140FE00E4A5032914202D14FF480312D
:1003D00008E00B4A6432914202D14FF4801101E0EF
:1003E0004FF08071064A083A5160012180F82110CF
:1003F000002180F82010416B01B18847204610BDD4
:100400000800024070B5044600F004F90546601C7F
:1004100002D004480078044400F0FCF8401BA042DD
:10042000FAD370BD000000202DE9F84FDFF8B89135
:10043000002409F1040A0AF1040B23460F270BF1EB
:10044000040EC9E00125A5402A40AA427DD1674E8D
:10045000D1F804C0ACEB0608B44532D014DCBCF1D2
:10046000030F3AD009DCBCF1000F2AD0BCF1010F18
:100470001CD0BCF1020F31D11DE0BCF1110F17D01F
:10048000BCF1120F2AD119E0B8F5881F19D006DC8B
:10049000B8F5803F15D0B8F5801F1FD111E0B8F531
:1004A000001F0ED0B8F5041F18D10AE0CB6815E084
:1004B000CB681B1D12E0CB6808330FE0CB680C3310
:1004C0000CE08B682BB1012B4FF0080303D0456182
:1004D00004E0042302E0056100E00023FF2A01D8C4
:1004E000064601E000F104064FEA840501D9A5F1B2
:1004F0002005D6F8008007FA05FC28EA0C0803FA64
:1005000005F548EA0508C6F800804D68ED0062D59B
:10051000374DAE6946F00106AE61AD6924F00306C1
:1005200005F001050095334D06EB050CDCF808508D
:10053000A607360F07FA06F825EA0805DFF8B8809F
:10054000404503D14FF0000817E044E0DFF8AC80ED
:10055000404502D14FF001080FE0DFF8A48040458C
:1005600002D14FF0020808E0DFF89880404502D140
:100570004FF0030801E04FF0040808FA06F848EAD3
:100580000508CCF808804D68D9F80060ED034D46A9
:1005900001D5164300E096432E604D68DAF80060FE
:1005A000AD03554601D5164300E096432E604D68D5
:1005B000DBF80060ED025D4601D5164300E096438E
:1005C0002E604D68DEF80060AD02754601D5164319
:1005D00000E096432E60641C0D682A46E5407FF4D7
:1005E00031AFBDE8F88F0000000401400000111099
:1005F000001002400000014000080140000C0140D2
:1006000000100140001401400AB101617047090463
:10061000FBE70000014880687047000000000020F0
:100620000248816802781144816070470000002010
:10063000074810B5016841F010010160032000F087
:1006400075F80F2000F006F800F024F8002010BD27
:100650000020024070B50D4D04464FF47A712878A1
:10066000B1FBF0F00A490968B1FBF0F000F031FC91
:1006700048B9102C07D200222146501E00F036F84F
:1006800000206C6070BD012070BD000000000020E3
:100690000C0000200C4808B5816941F0010181611E
:1006A000816901F001010091C16941F08051C1618E
:1006B000C06900F0805000900448416821F0E0617A
:1006C00041F00071416008BD00100240000001408F
:1006D000002809DB00F01F02012191404009800041
:1006E00000F1E020C0F8001170470000F0B40E4B9C
:1006F0001B680C46C3F30223C3F10705042D00D980
:100700000425191D072901D2002300E0DB1E012664
:1007100006FA05F1491E214099409E40761E16407A
:100720003143F0BC01F09EBB0CED00E0064900F047
:10073000070208684FF6FF03184040EA0220034A08
:1007400010430860704700000CED00E00000FA055F
:100750002DE9F0470F46050061D0434E306800F0A8
:100760000700B84209D2306820F0070038433060F3
:10077000306800F00700B84251D128683B4C81072F
:1007800012D5400703D5606840F4E06060602878C7
:10079000000703D5606840F4605060606068A96835
:1007A00020F0F000084360602878C00728D068680F
:1007B000012810D02168022810D0890700292EDADC
:1007C000616821F0030101436160FFF723FF804668
:1007D00041F288390DE021688903EFE78901EDE7EF
:1007E000FFF718FFA0EB0801494502D90320BDE837
:1007F000F0876068696800F00C00B0EB810FEFD102
:10080000306800F00700B8420BD9306820F00700CC
:1008100038433060306800F00700B84201D0012052
:10082000E5E72878400705D56068E96820F4E060CE
:10083000084360602878000706D56068296920F4BD
:10084000605040EAC100606000F038F86168084A12
:10085000C1F30311515CC8400649086006480068AE
:10086000FFF7F8FE0020C2E700200240001002401F
:10087000C81E00080C0000200400002004480549A0
:1008800000684968044AC1F30221515CC8407047BE
:100890000C00002000100240D81E00080448054942
:1008A00000684968044AC1F3C221515CC8407047DE
:1008B0000C00002000100240D81E000812A185B0D4
:1008C0000FC98DE80F0014A0144A00680490516805
:1008D000134801F00C03042B10D0082B0ED1C1F3E8
:1008E0008343C9031DF803000AD5516804AAC1F364
:1008F0004041515C0A4A5043B0FBF1F005B07047EB
:1009000008494843FAE700000203040506070809FE
:100910000A0B0C0D0E0F1010010200000010024017
:1009200000127A0000093D002DE9F84F040070D054
:100930002078C04DC00749D06868C0F38100012805
:1009400007D06868C0F38100022809D16868C00335
:1009500006D52868800339D560680028E7D035E0DF
:100960006068B0F5803F0BD010B1B0F5A02F11D06A
:10097000286820F480302860286820F4802002E075
:10098000286840F480302860606890B1FFF742FE2C
:1009900006460AE0286840F480202860F0E700BF9F
:1009A000FFF738FE801B642873D828688003F7D5CA
:1009B0000CE0FFF72FFE064605E000BFFFF72AFE1A
:1009C000801B6428F0D828688003F7D420789A4EDA
:1009D00080074FF001094FF0000839D5686810F022
:1009E0000C0F07D06868C0F38100022809D168683D
:1009F000C00306D42868800714D52069012808D1CF
:100A000010E02069B0B1C6F80090FFF703FE07467A
:100A100005E00AE1FFF7FEFDC01B0228C4D82868E4
:100A20008007F7D52868616920F0F80040EAC10026
:100A300028600DE0C6F80080FFF7ECFD074604E0F3
:100A4000FFF7E8FDC01B022823D828688007F7D4E9
:100A5000207800072CD57948A169D9B1C0F8009059
:100A6000FFF7D8FD074604E0FFF7D4FDC01B0228BE
:100A70000FD8686A8007F7D571484FF4FA510068BB
:100A8000B0FBF1F0009000BF0098411E0091FAD237
:100A90000EE080E0C0F80080FFF7BCFD074604E0F0
:100AA000FFF7B8FDC01B022875D8686A8007F7D425
:100AB0002078400760D5E8690027C00008D4E869BD
:100AC00040F08050E861E869012700F08050009014
:100AD0005C480168C90513D40168834641F48071FC
:100AE0000160FFF797FD824606E000BFFFF792FD29
:100AF000A0EB0A0064284ED8DBF80000C005F5D54D
:100B0000E06801280AD008B1052813D0286A20F02F
:100B100001002862286A20F0040002E0286A40F000
:100B200001002862E06841F2883B98B1FFF772FD4E
:100B300082460BE0286A40F004002862EEE700BF1E
:100B4000FFF768FDA0EB0A0159455AD8286A8007CB
:100B5000F6D50CE0FFF75EFD824605E0FFF75AFD93
:100B6000A0EB0A0159454CD8286A8007F6D41FB17A
:100B7000E86920F08050E861E06988B36968C1F3F2
:100B80008101022944D00228C6F8608004D0FFF712
:100B900041FD044638E034E0FFF73CFD074604E041
:100BA000FFF738FDC01B02282BD828688001F7D436
:100BB000206AB0F5803F05D16868A16820F4003054
:100BC00008436860D4E908010843696821F4741196
:100BD00008436860C6F86090FFF71CFD044606E015
:100BE00025E000BFFFF716FD001B022809D8286882
:100BF0008001F7D51BE000BFFFF70CFD001B0228AA
:100C000002D90320BDE8F88F28688001F4D40EE0F3
:100C10000128F7D06868226A00F48031914204D13B
:100C2000616A00F47010884201D00120EAE70020D8
:100C3000E8E7000000100240000042428004424207
:100C40000C0000200070004070B5040009D0606AFC
:100C5000002540B125616561A56294F8510040B15D
:100C60000CE0012070BD6068B0F5827FF4D0E561D2
:100C7000F2E784F85050204600F040F8022084F853
:100C800051002068016821F040010160A08821899D
:100C900000F4827001F404410843A18901F4006169
:100CA0000843217C01F002010843217D01F001018C
:100CB0000843218B01F400710843217F01F03801C2
:100CC000084394F8201001F080010843218D01F4BD
:100CD0000051084321680860A069042101EA10401E
:100CE000216848602068C16921F40061C1616565BF
:100CF000012084F85100002070BD000030B585B09F
:100D000000240094019402940394006814498842DA
:100D100023D11448816941F480518161816901F4D2
:100D200080510491816941F00401816180690E4D17
:100D300000F004000490A020009002200190032005
:100D4000039069462846FFF76FFB4020CDE9000479
:100D5000694628460294FFF767FB05B030BD0000E6
:100D60000030014000100240000801402DE9F84F1A
:100D7000044690F8500000271D4616468946012873
:100D80000DD04FF0010B84F850B0FFF743FC8046C4
:100D900094F85100BA46012804D0022793E00220BB
:100DA000BDE8F88FB9F1000F73D0002E71D0032089
:100DB00084F85100C4F854A0C4F83090A686E686A2
:100DC000C4F838A0A4F83CA0A4F83EA0C4F844A0FD
:100DD000C4F840A0A068B0F5004F09D120680168B0
:100DE00021F0400101602068016841F48041016008
:100DF00020680168490603D4016841F040010160A0
:100E0000E068B0F5006F606803D030B3012E24D0E5
:100E100041E008B1012E1CD1206B21680088C86018
:100E200006E020688168890709D5216B0988C160BF
:100E3000206B801C2063E08E401EE08609E0FFF7F7
:100E4000E9FBA0EB0800A84202D3681C01D031E006
:100E50007DB3E08E0028E4D120E0206B216800788B
:100E6000087306E020688168890709D5216B097835
:100E70000173206B401C2063E08E401EE0860AE078
:100E8000FFF7C8FBA0EB0800A84203D3681C02D000
:100E900010E017E06DB1E08E0028E3D1424629460C
:100EA000204600F0F0FD08B120206065A06818B170
:100EB00006E0FFE7032706E02068C168806800902D
:100EC000606D00B1012784F851B084F850A0384615
:100ED00066E710B5401EB0F1807F01D3012010BD40
:100EE0004FF0E02460610F21601700F0BBFF00208D
:100EF000A06107202061002010BD704770470000EE
:100F0000F8B5026804461068D168536910F00F0FF5
:100F10004FF0000553D003F0010601F490773743FA
:100F20005FD0C20705D0CA0503D5226C42F001028A
:100F30002264420705D5DA0703D0226C42F0020290
:100F40002264820705D5DA0703D0226C42F004023E
:100F50002264020707D501F02002324303D0226C3D
:100F600042F008022264226C002A34D0800604D5A4
:100F7000880602D5204600F04CFE20684069216CAE
:100F8000C0F38010090700D430B3204600F029FEDA
:100F90002068416949061BD5416921F04001416142
:100FA000A06BA8B158494163A06BFFF7DFF9002897
:100FB00011D0A06B416B01B0BDE8F040084783063B
:100FC0000FD58B060DD52046BDE8F84000F021BEB8
:100FD0002046FFF793FFF8BD2046FFF78FFF2564FB
:100FE000F8BD266B2023012E52D1C60650D5CE0661
:100FF0004ED5106850680090506940062AD5A16B04
:10100000086840680004000CEAD0A68D8642E7D943
:10101000E0858869202818D0D06820F48070D060DE
:101020002068416921F0010141612068416921F096
:101030004001416184F83E3025632068C16821F099
:101040001001C160A06BFFF76DF9A08DE18D401A12
:1010500081B219E0A08DE18D401A81B2E08D0028A7
:10106000BED00029BCD0D06820F49070D060206839
:10107000426922F00102426184F83E302563206813
:10108000C26822F01002C2602046FFF736FFF8BDAA
:1010900005062BD50D0629D594F83D002128F6D15B
:1010A000A068B0F5805F01D12069B0B1206A411C11
:1010B0002162216800784860E08C401E0004000C2A
:1010C000E084E4D12068C16821F08001C16020681B
:1010D000C16841F04001C160F8BD206A0088C0F3DA
:1010E00008005060206A801C2062E5E74006F3D5C6
:1010F0004806F1D5D168204621F04001D16084F83E
:101100003D3000F099F8F8BDD31B000870B504001D
:1011100004D094F83D00002510B106E0012070BD18
:1011200084F83C50204600F023F8242084F83D0049
:101130002068C16821F40051C160204600F0C4FD60
:101140002068016921F4904101612068416921F022
:101150002A0141612068C16841F40051C1602564E1
:10116000202084F83D0084F83E00002070BD00007F
:1011700030B585B000240094019402940394006873
:10118000184988422CD11848816941F48041816115
:10119000816901F480410491816941F00401816118
:1011A0008069124D00F0040004904FF4007000902C
:1011B000022001900320039069462846FFF734F986
:1011C0002815CDE90004694628460294FFF72CF95A
:1011D000002211462520FFF789FA2520FFF778FA2B
:1011E00005B030BD00380140001002400008014049
:1011F00090F83E30202B0ED159B152B190F83C30CE
:10120000012B08D0012380F83C300023036300F059
:10121000B7BD0120704702207047000010B5422280
:1012200003490448FFF7E4FFBDE8104000F0A4BB09
:1012300010000020AC0000207047FEE710B501222E
:101240000421FE48FFF7E0F91E20FFF7DBF8FE203F
:1012500000F0BAFD012000F0D1FD042000F0B4FD43
:10126000A02000F0CBFD052000F0AEFD702000F0C6
:10127000C5FD062000F0A8FD3C2000F0BFFD2520A4
:1012800000F0A2FD062000F0B9FD262000F09CFD34
:10129000802000F0B3FD272000F096FD122000F022
:1012A000ADFD282000F090FD122000F0A7FD2A20BF
:1012B00000F08AFD062000F0A1FD2B2000F084FD47
:1012C000802000F09BFD2D2000F07EFD122000F01C
:1012D00095FD2F2000F078FD122000F08FFD3720C3
:1012E00000F072FD0C2000F089FD6D2000F06CFD17
:1012F000182000F083FD292000F066FD012000F099
:101300007DFD302000F060FD432000F077FD0E20D1
:1013100000F05AFD832000F071FD0F2000F054FD15
:10132000832000F06BFD102000F04EFD712000F0D6
:1013300065FD112000F048FDB32000F05FFD122094
:1013400000F042FDB32000F059FD132000F03CFDF9
:10135000802000F053FD142000F036FD802000F0C6
:101360004DFD152000F030FD812000F047FD1620D6
:1013700000F02AFD812000F041FD182000F024FD3E
:10138000662000F03BFD192000F01EFD442000F017
:1013900035FD1E2000F018FD022000F02FFD5B201F
:1013A00000F012FD102000F029FD622000F00CFD7D
:1013B000192000F023FD632000F006FD192000F045
:1013C0001DFD702000F000FD552000F017FD1D20D0
:1013D00000F0FAFC022000F011FD892000F0F4FC7E
:1013E000182000F00BFD8A2000F0EEFCB92000F080
:1013F00005FD8B2000F0E8FC012000F0FFFC8C20B4
:1014000000F0E2FC102000F0F9FC8D2000F0DCFC84
:10141000902000F0F3FC8E2000F0D6FC012000F0BC
:10142000EDFC6E2000F0D0FC0A2000F0E7FC6A2002
:1014300000F0CAFC052000F0E1FC3A2000F0C4FCFA
:10144000082000F0DBFC3B2000F0BEFC002000F098
:10145000D5FC3D2000F0B8FC162000F0CFFC3F206A
:1014600000F0B2FC272000F0C9FC402000F0ACFCEA
:101470000F2000F0C3FC412000F0A6FC0D2000F07E
:10148000BDFC422000F0A0FC142000F0B7FC43207B
:1014900000F09AFC412000F0B1FC442000F094FCE4
:1014A000252000F0ABFC452000F08EFC522000F01F
:1014B000A5FC462000F088FC362000F09FFC472069
:1014C00000F082FC632000F099FC482000F07CFCD6
:1014D000142000F093FC492000F076FC412000F03D
:1014E0008DFC4A2000F070FC252000F087FC4B208A
:1014F00000F06AFC522000F081FC4C2000F064FCFB
:10150000362000F07BFC4D2000F05EFC632000F0F4
:1015100075FC4E2000F058FC142000F06FFC4F20AA
:1015200000F052FC412000F069FC502000F04CFC1F
:10153000252000F063FC512000F046FC522000F012
:101540005DFC522000F040FC362000F057FC532098
:1015500000F03AFC632000F051FC542000F034FC11
:10156000142000F04BFC552000F02EFC412000F030
:1015700045FC562000F028FC252000F03FFC5720B9
:1015800000F022FC522000F039FC582000F01CFC36
:10159000362000F033FC592000F016FC632000F0E8
:1015A0002DFC662000F010FC902000F027FC672046
:1015B00000F00AFC402000F021FC722000F004FC46
:1015C0001A2000F01BFC732000F0FEFB072000F047
:1015D00015FC742000F0F8FB0C2000F00FFC6A20D2
:1015E00000F0F2FB3D2000F009FC6B2000F0ECFB6A
:1015F000292000F003FCFE2000F0E6FB042000F0B0
:10160000FDFB5E2000F0E0FB012000F0F7FB5F2017
:1016100000F0DAFBB82000F0F1FB602000F0D4FB12
:10162000BB2000F0EBFB612000F0CEFBBB2000F004
:10163000E5FB622000F0C8FBBB2001E00008014090
:1016400000F0DCFB762000F0BFFBBB2000F0D6FBF7
:10165000772000F0B9FB3B2000F0D0FB782000F0B1
:10166000B3FB922000F0CAFB792000F0ADFBBB2059
:1016700000F0C4FB7A2000F0A7FBBB2000F0BEFB0B
:10168000002000F0A1FBDC2000F0B8FB012000F0FE
:101690009BFB002000F0B2FB022000F095FB022033
:1016A00000F0ACFB032000F08FFB002000F0A6FB55
:1016B000042000F089FB082000F0A0FB052000F0CA
:1016C00083FB012000F09AFB062000F07DFB7020D8
:1016D00000F094FB072000F077FB0A2000F08EFB5F
:1016E000082000F071FB002000F088FB092000F0CA
:1016F0006BFBDC2000F082FB0A2000F065FB002081
:1017000000F07CFB0B2000F05FFB022000F076FB7A
:101710000C2000F059FB002000F070FB0D2000F0C1
:1017200053FB082000F06AFB0E2000F04DFB002068
:1017300000F064FB0F2000F047FB702000F05EFB20
:10174000102000F041FB0A2000F058FB112000F0AF
:101750003BFB002000F052FB122000F035FBCC20B8
:1017600000F04CFB132000F02FFB002000F046FBA4
:10177000142000F029FB022000F040FB152000F0AF
:1017800023FB002000F03AFB162000F01DFB202078
:1017900000F034FB172000F017FB002000F02EFBB8
:1017A000182000F011FB282000F028FB192000F081
:1017B0000BFB262000F022FB1A2000F005FB002086
:1017C00000F01CFB1B2000F0FFFACC2000F016FB01
:1017D0001C2000F0F9FA002000F010FB1D2000F0A2
:1017E000F3FA022000F00AFB1E2000F0EDFA0020C0
:1017F00000F004FB1F2000F0E7FA202000F0FEFAC2
:10180000202000F0E1FA012000F0F8FA212000F099
:10181000DBFA282000F0F2FA222000F0D5FA262088
:1018200000F0ECFA232000F0CFFA002000F0E6FAF6
:101830004C2000F0C9FA892000F0E0FA4D2000F0B9
:10184000C3FA002000F0DAFA4E2000F0BDFA0120C1
:1018500000F0D4FA4F2000F0B7FA002000F0CEFAE2
:10186000502000F0B1FA012000F0C8FA512000F039
:10187000ABFABB2000F0C2FA522000F0A5FABB2060
:1018800000F0BCFA532000F09FFACA2000F0B6FA2C
:10189000542000F099FA002000F0B0FA552000F032
:1018A00093FA032000F0AAFA562000F08DFA0020E7
:1018B00000F0A4FA582000F087FA002000F09EFA09
:1018C000592000F081FA002000F098FA652000F01D
:1018D0007BFA452000F092FA662000F075FA0C20A1
:1018E00000F08CFA672000F06FFA002000F086FA12
:1018F000FE2000F069FA012000F080FAE52000F0F7
:1019000063FA002000F07AFAE62000F05DFA102079
:1019100000F074FAE72000F057FA312000F06EFA78
:10192000FE2000F051FA002000F068FAC42000F018
:101930004BFA802000F062FA2A2000F045FA0020DD
:1019400000F05CFA042000F059FA002000F056FA8A
:101950007B2000F053FA112000F036FA002000F04E
:101960004DFA9620FEF74EFD292000F02DFABDE835
:101970001040002000F042BA70B50D4D95F841209E
:1019800095F8400002F10A03C11DFEF780FC002417
:101990004FF6FF76285D012807D0002000F048FAB6
:1019A000641CA4B2302CF5D370BD3046F6E70000BD
:1019B0001000002030B585B0002410480094019438
:1019C00002940394816941F00401816180690C4DA6
:1019D00000F00400049022461C212846FEF714FE65
:1019E0001C2000900120CDE90104022003906946EB
:1019F0002846FEF719FD05B030BD0000001002407A
:101A0000000801400F4810B50D4901604FF4827184
:101A1000416000218160C1604FF400720161C0E942
:101A20000512C1610162416281620A21C162FFF750
:101A30000BF9002803D0BDE81040FEF771BC10BDC3
:101A400000300140540000200C4810B50A490160E4
:101A50004FF4E1314160002181600C22C160C0E996
:101A600004128161C161FFF751FB002803D0BDE87A
:101A70001040FEF755BC10BD00380140AC000020FE
:101A8000FEE7FEE7704738B50B4600920446002299
:101A9000802100F009F8002804D0606D40F020009B
:101AA0006065032038BD00002DE9F8431E469146CD
:101AB00088460446089DFEF7ADFD401B351AFEF72B
:101AC000A9FD074625480068C0F3CB30684338E0DD
:101AD000701C37D0FEF79EFDC01BA84203D215B183
:101AE000009860B32CE02068416821F0E00141607B
:101AF0006068B0F5827F0BD1A068B0F5004F02D0CE
:101B0000B0F5806F04D12068016821F040010160C8
:101B1000A06AB0F5005F09D12068016821F4005186
:101B200001602068016841F400510160012084F8DF
:101B30005100002084F850000320BDE8F883002500
:101B4000401E00902068816838EA010004D000211E
:101B50004945BDD10020F0E70121F9E70C00002044
:101B60007047000001B54FF0FF330122694602487B
:101B7000FFF7FCF808BD000054000020FEF750BD40
:101B800010B590B028216846FEF71EFB14210AA864
:101B9000FEF71AFB02200090012004901020002480
:101BA000059007946846FEF7BFFE08B172B6FEE7DF
:101BB0000F20CDE90A040C940D9400210AA80E947C
:101BC000FEF7C6FD002801D072B6FEE710B010BDCA
:101BD000704710B5406A0021C185C184FFF78EF9B6
:101BE00010BD0168CA6822F49072CA6001684A692F
:101BF00022F001024A61016B012904D10168CA681F
:101C000022F01002CA60202180F83E1000210163FA
:101C1000704708B590F83E10222901D0022008BD77
:101C200082684FF480539A4201D1016921B1816ADF
:101C30009A421BD04AB10AE00268816A5268C2F334
:101C400008020A80816A891C08E0026972B1026890
:101C5000526802F07F020A70816A491C8162C18D5C
:101C6000491E0904090CC18503D019E002685268B5
:101C7000F1E70168CA6822F02002CA600168CA68F8
:101C800022F48072CA6001684A6922F001024A6146
:101C9000202180F83E10016B012903D0FFF7BEFA26
:101CA000002008BD002101630168CA6822F010020B
:101CB000CA6001680A68D20602D50A6849680091BC
:101CC000818DFFF71AF9EBE770B5044600680169EA
:101CD000E26821F44051114301612169A068084381
:101CE000616908432168CA6841F20C639A43024360
:101CF000CA6020684169A26921F4407111434161C1
:101D00001E492068884202D1FEF7C8FD01E0FEF7B7
:101D1000B5FD00EBC00101EB00126068642180009A
:101D2000B2FBF0F3B3FBF1F36FF018067343B2FBB1
:101D3000F0F5B2FBF0F605EB8305322303EB051556
:101D4000B5FBF1F5B6FBF1F605F0F00505EB061570
:101D5000B2FBF0F6B2FBF0F0B0FBF1F06FF018025E
:101D6000504306EB800003EB0010B0FBF1F021685C
:101D700000F00F002844886070BD0000003801406A
:101D800081628285C28500210164222280F83E2082
:101D900080F83C100168CA6842F48072CA60016829
:101DA0004A6942F001024A610068C16841F02001BD
:101DB000C1600020704700000148FFF7A1B8000093
:101DC000AC000020FEE7000070B50B4D0446002279
:101DD00010212846FEF718FC002208212846FEF7AD
:101DE00013FCE0B2FFF7BEFE2846BDE870400122BA
:101DF0001021FEF709BC00000008014070B50B4D32
:101E00000446002210212846FEF7FEFB012208218D
:101E10002846FEF7F9FBE0B2FFF7A4FE2846BDE82E
:101E2000704001221021FEF7EFBB000000080140C6
:101E300070B50B4D0446002210212846FEF7E4FB46
:101E4000012208212846FEF7DFFBE0B2FFF78AFEF9
:101E50002846BDE8704001221021FEF7D5BB0000E6
:101E6000000801400907090E002804DB00F1E0200A
:101E700080F80014704700F00F0000F1E02080F8B7
:101E8000141D7047FEF7D4FBFFF77AFEFFF792FDB3
:101E9000FFF7B8FDFFF7D8FDFFF7D0F94222084958
:101EA0000848FFF7A5F91E214AF6AA220846FEF7C0
:101EB00017FA1E2100220846FEF712FAFEE700007C
:101EC00010000020AC000020000000000000000016
:101ED00001020304060708090000000001020304D0
:101EE000001F00080000002010000000280100086A
:101EF000101F0008100000204007000044010008E7
:101F00000100000010000000000000000024F400A8
:04000005080000ED02
:00000001FF
